:060000000A128A11FC2F18
:100F6C00831203138618861086180800861408004E
:100F7C008316031789018801831603130610861440
:100F8C0008000A128A11BE270A128A110A128A1143
:100F9C00B6270A128A1183120313861CCC2F0A124D
:100FAC008A11DB270A128A11CC2F83120313061421
:100FBC000D30F200AF30F100B630F000F00BE42F42
:100FCC00F10BE42FF20BE42F000083120313061035
:100FDC000D30F200AF30F100B630F000F00BF42F12
:100FEC00F10BF42FF20BF42F0000080083010A120E
:040FFC008A11C72F60
:00000001FF
