:060000000A128A11122809
:10000800FE00030EF1000408F2000A08F300831250
:1000180003137F08F4000A128A11F32B0A128A11BB
:1000280015280A128A112324F800A001A101A201AF
:10003800A301A401A501A601A701A801A901F60130
:10004800F70183010A128A116A29C3308312031344
:10005800AB00CC30AA00AA0B2F28AB0B2F2800002E
:1000680083120313061386120610861006158615CA
:100078000616213083120313AB007530AA00AA0BB1
:100088004328AB0B43284828831203130612213058
:1000980083120313AB007530AA00AA0B5128AB0BCF
:1000A8005128562883120313061386120610861049
:1000B800061586150616213083120313AB0075301A
:1000C800AA00AA0B6528AB0B65286A2883120313BC
:1000D8000612213083120313AB007530AA00AA0B55
:1000E8007328AB0B73287828831203130613861220
:1000F8000610861006158611061621308312031382
:10010800AB007530AA00AA0B8728AB0B87288C2870
:10011800831203130612213083120313AB007530C8
:10012800AA00AA0B9528AB0B95289A2883120313CB
:10013800061386120610861006158611061621303B
:1001480083120313AB007530AA00AA0BA928AB0BC6
:10015800A928AE2883120313061206138612061462
:1001680086140616213083120313AB007530AA00DB
:10017800AA0BBC28AB0BBC28C12883120313061298
:10018800213083120313AB007530AA00AA0BCA28CA
:10019800AB0BCA28CF288312031306138612061046
:1001A8008610061186110616213083120313AB0040
:1001B8007530AA00AA0BDE28AB0BDE28E3288312D1
:1001C80003130612061386120614861006118611EA
:1001D8000616213083120313AB007530AA00AA0B50
:1001E800F328AB0BF328F8288312031306122130E7
:1001F80083120313AB007530AA00AA0B0129AB0BBD
:100208000129062983120313061386120610861085
:10021800061186110616213083120313AB007530C0
:10022800AA00AA0B1529AB0B15291A298312031347
:100238000612061386120610861006118615061673
:10024800213083120313AB007530AA00AA0B2A29A8
:10025800AB0B2A292F29831203130612213083128C
:100268000313AB007530AA00AA0B3829AB0B382949
:100278003D298312031306138612061086100611F1
:1002880086110616213083120313AB007530AA00BD
:10029800AA0B4C29AB0B4C295129831203130612C4
:1002A80006138612061486140615861106162130C2
:1002B80083120313AB007530AA00AA0B6129AB0B9C
:1002C8006129662983120313061208000A128A118B
:1002D800DF230A128A110A128A111D240A128A11AE
:1002E8000A128A1129200A128A110A128A1107246D
:1002F8000A128A11BA29F6010A128A11EE210A1283
:100308008A11BA297803031D96290A128A116823CB
:100318000A128A11F601023083120313B100310860
:10032800F800BA290A128A113B230A128A11F60127
:10033800F801F80ABA29013083120313B100310811
:10034800AA007608B200B3013208AB003308AC004B
:1003580020300A128A116F220A128A11F6017803D4
:1003680020300A128A11BA220A128A118312031340
:10037800881FE129823083120313B200DD30B100F7
:10038800B10BC429B20BC42983120313881FE129B6
:10039800881FCC29823083120313B200DD30B100EC
:1003A800B10BD429B20BD42983120313881BE1297A
:1003B8000A128A1195230A128A117703031DBA2992
:1003C800F7017608083A03197F29053A031986299F
:1003D8009F29BA2983120313861206130610861062
:1003E800061186150616213083120313AB007530EB
:1003F800AA00AA0BFD29AB0BFD29022A83120313BD
:1004080006128612061306108610061186110616A5
:10041800213083120313AB007530AA00AA0B122AED
:10042800AB0B122A172A8312031306120617861219
:10043800061486100615861106162130831203133A
:10044800AB007530AA00AA0B272AAB0B272A2C2A47
:100458008312031306120617861206108610061159
:1004680086110616213083120313AB007530AA00DB
:10047800AA0B3C2AAB0B3C2A412A8312031306120F
:1004880086120613061086100611861506162130E8
:1004980083120313AB007530AA00AA0B512AAB0BC9
:1004A800512A562A831203130612861206130610BF
:1004B8008610061186110616213083120313AB002D
:1004C8007530AA00AA0B662AAB0B662A6B2A831220
:1004D80003130612080083120313AF002B30F50034
:1004E8007508AE008D2A2E08840083130008F500D5
:1004F8007508B0000230F5007508AE073008F50041
:100508002F0884007508831380000130F5007508F2
:10051800AF070130AA07FF302A0784000A128A11A0
:1005280014240A128A11F5007508B000300803195E
:10053800B52A25303006031D822AAD010130AA07ED
:10054800FF302A0784000A128A1114240A128A1119
:10055800B000003A0319B52A633A0319772A822AA8
:100568008D2A2F0884008313800108008312031347
:10057800AE00AF012E088400831300080319080099
:100588002E08840083130008AC002C08AF002F0845
:10059800AC0004300310AC0CFF3E031DCE2A2C081F
:1005A800AD002D08AF002F080A128A11FE220A1288
:1005B8008A110A128A11C2230A128A11831203139A
:1005C8002E088400831300080F39AC002C08AF00F4
:1005D8002F080A128A11FE220A128A110A128A1197
:1005E800C2230A128A11013083120313AC002C08AB
:1005F800AE07BE2AF5007508013983120313AA0055
:10060800AA0DAA0DAA0D06082A06F7392A06860099
:100618007508AA0003102A0C0139AB00AB0DAB0D0D
:1006280006082B06FB392B0686007508AA0002303F
:100638000310AA0CFF3E031D1C2B2A080139AB002E
:10064800AB0D06082B06FD392B0686007508AA0097
:1006580003300310AA0CFF3E031D2D2B01302A0581
:10066800AB0006082B06FE392B068600080083120D
:100678000313861206130614861006118611061631
:10068800213083120313AB007530AA00AA0B4A2B42
:10069800AB0B4A2B4F2B8312031306128612061339
:1006A80006108610061186110616213083120313D0
:1006B800AB007530AA00AA0B5F2BAB0B5F2B642B2A
:1006C80083120313061208008312031386120613FB
:1006D8000614861406118611061621308312031398
:1006E800AB007530AA00AA0B772BAB0B772B7C2BB2
:1006F80083120313061286120613061086100611BB
:1007080086110616213083120313AB007530AA0038
:10071800AA0B8C2BAB0B8C2B912B83120313061279
:10072800080083120313061386120610861006119A
:1007380086110616213083120313AB007530AA0008
:10074800AA0BA42BAB0BA42BA92B83120313061201
:100758000613861206108610061186150616213015
:1007680083120313AB007530AA00AA0BB92BAB0B8D
:10077800B92BBE2B8312031306120800831203132E
:1007880006178612073083120313AB007C30AA00C9
:10079800AA0BCC2BAB0BCC2B000083120313061631
:1007A800023083120313AA00AA0BD82B000083126D
:1007B800031306120800831603178801890183169C
:1007C80003138601071387178312031387018030E9
:1007D80083160313880083120313880108008C1EF4
:1007E800FC2B8C12F701F70A1A08F0007008F600C3
:1007F8007408FF0073088A0072088400710E830071
:10080800FE0E7E0E09002E308316031398009030DA
:10081800831203139800813083160313990008008C
:1008280004308A000408840A8207003425346334BB
:1008380000348B170B17831603138C16080001342A
:04400E00F2EFFFFFCF
:00000001FF
