:060000000A128A11122809
:10000800FE00030E83120313B2000408B3000A08AB
:10001800B4007F08B5000A168A15E82D0A128A115D
:100028001528FC018313443084005A300A168A15B7
:10003800ED220A128A1183160313EA01EB01EC017F
:100048008317A8308400B8300A168A15ED22830178
:100058000A168A157F2BDC3083160313E10061082A
:1000680083160317930001300313DB07FF305B0788
:1000780084000A168A1100200A128A11E100610818
:1000880083160317A70027080319F02F2530270622
:1000980003195E28270883160313E1005908840012
:1000A80083175A1C8313610880000130D90703188D
:1000B800DA0A3728831603179601970194019501E8
:1000C800831603135B0884000A168A1100200A129B
:1000D8008A110A168A15F5220A128A11031CCA28DF
:1000E80083160317960197010A3083120313B6008B
:1000F8000030B70083160317170883120313B900DB
:1001080083160317160883120313B8000A128A15F8
:1001180000200A128A118312031337088316031763
:100128009700831203133608831603179600831665
:1001380003135B0884000A168A1100200A128A1128
:10014800D03EE100FF3003180030E200610883165A
:10015800031796070318970A831603136208831672
:1001680003179707013083160313E1006108DB07C3
:100178005B0884000A168A1100200A128A110A16DE
:100188008A15F5220A128A11031878288316031390
:100198005B0884000A168A1100200A128A112E3A76
:1001A800031D34298316031715170130831603130B
:1001B800E1006108DB0783160317A501A6010313F5
:1001C8005B0884000A168A1100200A128A110A168E
:1001D8008A15F5220A128A11031C3E298316031771
:1001E800260883120313B700831603172508831202
:1001F8000313B6000A30B8000030B9000A128A1595
:1002080000200A128A11831603135B0884000A1659
:100218008A1100200A128A118312031336078316E3
:100228000313E1000030031801308312031337076A
:1002380083160313E2006108D03E83160317A50056
:100248008316031362080318013EFF3E8316031743
:10025800A600013083160313E1006108DB07E328D9
:1002680083160317A501A60115163E2915155D2944
:1002780014175D29013083160313DB07FF305B0772
:1002880084000A168A1100200A128A11831603179D
:10029800A700003A0319F02F643A03195D29023ABE
:1002A80003193A290F3A03195D291C3A03193C2905
:1002B80037280030140583160313E100073083162E
:1002C8000317150583160313E20061086204031976
:1002D800F32F83160317151E75290630A500003065
:1002E800A6001308840083130008A200840A0008EB
:1002F800A300840A0008A400033083160313E10056
:100308006108831603179307220883120313B600A4
:1003180083160317230883120313B70083160317E2
:10032800240883120313B8000030B9000030BA0063
:100338000030BB000A168A1589250A128A1103188B
:10034800D22983160317220883120313B6008316D3
:100358000317230883120313B7008316031724080F
:1003680083120313B8000A168A119C200A128A11F4
:1003780083120313360883160317A200831203138C
:10038800370883160317A30083120313380883164C
:100398000317A40003309404003095048316031750
:1003A800A001A1012408230422040319FA2AA23077
:1003B80084008317000883160313E100840A0008E9
:1003C800E200840A0008E300840A0008E4000F3011
:1003D8000310E40CE30CE20CE10CFF3E031DEC29D6
:1003E800FF306105E50000306205E6006508823EE1
:1003F80083160317A0008316031366080318013E2B
:10040800FF3E83160317A100FF30A0070318A10AB7
:10041800FF30A107033083120313B6000030B70082
:1004280083160317210883120313B90083160317D1
:10043800200883120313B8000A128A1500200A1232
:100448008A1183120313370883160317A100831236
:100458000313360883160317A0000A308312031308
:10046800BD000030BE008316031721088312031352
:10047800C00083160317200883120313BF000A164F
:100488008A1582270A128A11831203133E088316DB
:100498000317A100831203133D0883160317A00056
:1004A800A11F5C2AFF30A0070318A10AFF30A1078B
:1004B8002003FF3A0A128A1509250A128A1183169F
:1004C8000313360883160317980083160313370897
:1004D8008316031799008316031338088316031726
:1004E8009A00220883160313A6008316031723080D
:1004F80083160313A7008316031724088316031310
:10050800A80083160317180883160313A900831677
:100518000317190883160313AA00831603171A086A
:1005280083160313AB000A168A1136220A128A119F
:1005380083160313260883160317980083160313DC
:1005480027088316031799008316031328088316B0
:1005580003179A00180883120313B60083160317AB
:10056800190883120313B700831603171A08831296
:100578000313B8000030B9008030BA003F30BB0028
:100588000A168A1589250A128A110318D32AFF30F8
:1005980083160317A0070318A10AFF30F92A831648
:1005A8000317180883120313B600831603171908D4
:1005B80083120313B700831603171A088312031351
:1005C800B8000030B9002030BA004130BB000A162C
:1005D8008A1589250A128A11031CFA2A0130831602
:1005E8000317A0070318A10A0030A10783160317F1
:1005F8002608803AFF0080307F02031D052B0D304E
:1006080025020318402B8316031725080A128A159A
:10061800C7200A128A11831603133608C600370842
:10062800C7003808C8008316031722088316031367
:10063800C90083160317230883160313CA008316F9
:100648000317240883160313CB000A168A112924DA
:100658000A128A1183160313460883160317A20089
:1006680083160313470883160317A300831603137F
:10067800480883160317A400831603172108803A35
:10068800FF0080307F02031D4B2B0A302002031825
:100698007E2B831603172408230422040319052C30
:1006A800220883160313BF00831603172308831633
:1006B8000313C00083160317240883160313C1000D
:1006C8000A168A11D5200A128A11831603134208C2
:1006D800410440043F04031D052C83160317210819
:1006E800803AFF0080307F02031D7C2B02302002FD
:1006F800031C052C83160317180883120313B6006E
:1007080083160317190883120313B70083160317F8
:100718001A0883120313B8007030B9008930BA0080
:100728004030BB000A168A1589250A128A11031857
:100738009F2BF730A02BF83083160317A007031858
:10074800A10AFF30A10720080A128A1509250A12F2
:100758008A11831603133608831603179800831625
:1007680003133708831603179900831603133808F1
:10077800831603179A00220883120313B600831600
:100788000317230883120313B700831603172408DB
:1007980083120313B8008316031718088312031370
:1007A800B90083160317190883120313BA008316B6
:1007B80003171A0883120313BB000A168A1125238C
:1007C8000A128A11831203133908831603179F002C
:1007D800831203133808831603179E00831203132A
:1007E8003708831603179D008312031336088316F0
:1007F80003179C000030A2000030A3000030A400C2
:100808008C2C83160317220883160313BF00831644
:100818000317230883160313C0008316031724083D
:1008280083160313C1000A168A11D5200A128A11E9
:10083800831603134208831603179F0083160313B6
:100848004108831603179E00831603134008831676
:1008580003179D00831603133F08831603179C0094
:100868001F0883120313C100831603171E0883127F
:100878000313C000831603171D0883120313BF0058
:10088800831603171C0883120313BE000A168A1165
:10089800A6200A128A11831203133E088316031333
:1008A800D300831203133F0883160313D400831263
:1008B8000313400883160313D50083160317220871
:1008C80083160313D600831603172308831603130E
:1008D800D70083160317240883160313D8000A16B3
:1008E8008A159E230A128A11831603135308831646
:1008F8000317A20083160313540883160317A300D3
:1009080083160313550883160317A400A001A10139
:10091800A701A70A0A3027060319E22C270883161D
:100928000313E10001300310E10DFF3E031D972C76
:100938000310610D013E84000A168A1100200A1274
:100948008A11E2000A168A1100200A128A11E300AD
:100958000A168A1100200A128A11E4000A168A115E
:1009680000200A128A11E5006508831603171F0282
:10097800031DD42C831603136408831603171E0261
:10098800031DD42C831603136308831603171D0253
:10099800031DD42C831603136208831603171C0245
:1009A800031CE22C013083160313E100610883164F
:1009B8000317A7070A302706031D922C25082707C7
:1009C80083160313E1008316031726080318260A63
:1009D800003EA71BFF3E83160313E200831603178E
:1009E8002008831603136107E30083160317210801
:1009F8000318210A831603136207E40063088316A9
:100A08000317960283160313640883160317031C3F
:100A180097039702250826040319182DFF30960717
:100A28000318970AFF30970703301405831603133A
:100A3800E100003083160317150583160313E2003F
:100A4800610862040319302DFF30831603179607D7
:100A58000318970AFF309707831603171708803A79
:100A6800FF0080307F02031D3B2D01301602031C5E
:100A78004D2D203083160313E10059088400831795
:100A88005A1C8313610880000130D9070318DA0A59
:100A9800282D033083160317140583160313E1006A
:100AA800003083160317150583160313E200610847
:100AB800620403196C2D2D30E10059088400831756
:100AC8005A1C8313610880000130D9070318DA0A19
:100AD800FF30E100610883160317A707270A0319E7
:100AE8002F2E83160317270883160313E1000130FE
:100AF8000310E10DFF3E031D7C2D0310610D013E27
:100B080084000A168A1100200A128A11831203131C
:100B1800B6000A168A1100200A128A11B7000A16AE
:100B28008A1100200A128A11B8000A168A110020B8
:100B38000A128A11B900831603171F0883120313B8
:100B4800BD00831603171E0883120313BC00831607
:100B580003171D0883120313BB00831603171C0811
:100B680083120313BA000A168A1548260A128A1134
:100B7800831203133908831603179B008312031388
:100B88003808831603179A0083120313370883164D
:100B98000317990083120313360883160317980066
:100BA800003083160313A3000030A2000030A10018
:100BB8000A30A000831603171B0883160313A70027
:100BC800831603171A0883160313A6008316031740
:100BD800190883160313A50083160317180883162C
:100BE8000313A4000A168A15EA240A128A11831626
:100BF80003132308831603179B0083160313220885
:100C0800831603179A008316031321088316031704
:100C180099008316031320088316031798001808F1
:100C2800303E83160313602D303083160313E10022
:100C38005908840083175A1C831361088000013007
:100C4800D9070318DA0AFF3083160317A007031819
:100C5800A10AFF30A1072108803AFF0080307F02F7
:100C6800031D382E013020020318182E831603178F
:100C78002608803AFF0080307F02031D452E093088
:100C88002502031C492E08304C2E8316031725080D
:100C980083160313E100610883160317A7002708CA
:100CA80083160313E100E201E11BE20361088316E6
:100CB8000317A50283160313620883160317031C80
:100CC800A603A60227080319782E2E3083160313CD
:100CD800E1005908840083175A1C831361088000B7
:100CE8000130D9070318DA0A8316031727080A12EE
:100CF8008A1509250A128A118316031336088316E2
:100D080003179000831603133708831603179100FF
:100D180083160313380883160317920010088316E6
:100D28000313A90083160317110883160313AA00D7
:100D380083160317120883160313AB0083160317D1
:100D4800220883160313A6008316031723088316A5
:100D58000313A70083160317240883160313A80098
:100D68000A168A1136220A128A11831603132608D4
:100D7800BF002708C0002808C1000A168A11D5201C
:100D88000A128A11831603134208831603179F0059
:100D9800831603134108831603179E008316031353
:100DA8004008831603179D00831603133F08831614
:100DB80003179C00FF3083160313E10061088316B4
:100DC8000317A707270A0319F62F27088316031303
:100DD800E10001300310E10DFF3E031DEE2E03106C
:100DE800610D013E84000A168A1100200A128A1138
:100DF80083120313B6000A168A1100200A128A11F8
:100E0800B7000A168A1100200A128A11B8000A16B9
:100E18008A1100200A128A11B900831603171F08C5
:100E280083120313BD00831603171E0883120313CE
:100E3800BC00831603171D0883120313BB00831617
:100E480003171C0883120313BA000A168A154826CA
:100E58000A128A11831203133908831603179B0099
:100E6800831203133808831603179A008312031397
:100E7800370883160317990083120313360883165D
:100E880003179800003083160313A3000030A20054
:100E98000030A1000A30A000831603171B08831630
:100EA8000313A700831603171A0883160313A60053
:100EB80083160317190883160313A500831603174F
:100EC800180883160313A4000A168A15EA240A12BE
:100ED8008A11831603132308831603179B008316AE
:100EE80003132208831603179A0083160313210895
:100EF8008316031799008316031320088316031714
:100F080098001808303E83160313E100590884003E
:100F180083175A1C8313610880000130D90703180E
:100F2800DA0A83160317270883160313E100013032
:100F38000310E10DFF3E031D9C2F0310610D013EC0
:100F480084000A168A1100200A128A11A0000A16C3
:100F58008A1100200A128A11A1000A168A1100209B
:100F68000A128A11A2000A168A1100200A128A118E
:100F7800A300831603171F0883160313A7008316FD
:100F880003171E0883160313A600831603171D08EC
:100F980083160313A500831603171C08831603136F
:100FA800A4000A168A15EA240A128A118316031362
:100FB8002308831603179F0083160313220883163A
:100FC80003179E00831603132108831603179D0039
:100FD800831603132008DB2E0A128A15FD2C0A1229
:0A0FE8008A15BF2A0A128A15BA2AD8
:1010000083120313BA01BB01361C0C283808BA0737
:101010000318BB0A3908BB0701300310B80DB90D1E
:10102000FF3E031D0D2801300310B70CB60CFF3E28
:10103000031D142836083704031D04283B08B70095
:101040003A08B600080083120313861F7628813001
:101050009F0083160313EA014A30D9000030DA00FA
:101060007730E7006708DB006A08E800E9016808F4
:10107000DC006908DD000A128A112F200A128A1585
:101080004A3083160313E7006708EC00A830D90044
:101090000130DA008830E7006708DB0083120313B1
:1010A000440883160313DC008312031345088316D8
:1010B0000313DD0083120313460883160313DE00B7
:1010C00083120313480883160313E00083120313EB
:1010D000470883160313DF000A128A112F20A83055
:1010E00083160313E7006708EB00080085308312BE
:1010F0009F0083160313EA01EA0A4A30D900003040
:10110000DA007730E7006708DB006A08E800E901E9
:101110006808DC006908DD000A128A112F200A1213
:101120008A154A3083160313E7006708EC00A830DD
:10113000D9000130DA008830E7006708DB0083124D
:101140000313440883160313DC00831203134508BA
:1011500083160313DD00831203134608831603135B
:10116000DE0083120313480883160313E000831282
:101170000313470883160313DF000A128A112F2076
:10118000A83083160313E7006708EB0008008316F6
:101190000313C5006E304502031CCB290330B90090
:1011A000390883120313C2000A30BD000030BE00AC
:1011B000831603134508BA00BB013A0883120313D0
:1011C000B800831603133B0883120313B90064307D
:1011D000B6000030B7000A168A159D240A128A1537
:1011E000831203133708C0003608BF000A168A1599
:1011F00082270A128A15831203133D08093E0A1634
:101200008A1546230A128A15503E84000A168A114E
:1012100000200A128A1583160313A6000A168A11E3
:1012200000200A128A15A7000A168A1100200A1245
:101230008A15A8000330BC003C0883120313C200C7
:101240006430BD000030BE00831603134508BD00A6
:10125000BE013D0883120313BF00831603133E082B
:1012600083120313C0000A168A1582270A128A15F0
:10127000831203133D08123E0A168A1546230A12EA
:101280008A15503E84000A168A1100200A128A1517
:1012900083160313A9000A168A1100200A128A1560
:1012A000AA000A168A1100200A128A15AB000A1633
:1012B0008A1136220A128A15831603132608C200E1
:1012C0002708C3002808C4000330B9003908831276
:1012D0000313C200831603134508BA00BB013A0882
:1012E00083120313B800831603133B0883120313FE
:1012F000B9000A30B6000030B7000A168A159D24DE
:101300000A128A158312031336080A168A15462311
:101310000A128A15503E84000A168A1100200A1209
:101320008A1583160313A6000A168A1100200A12D2
:101330008A15A7000A168A1100200A128A15A80029
:101340004208A9004308AA004408AB000A168A1103
:1013500036220A128A15831603132608BF002708AF
:10136000C0002808C1000030A6000030A7003F30B0
:10137000A8003F08A9004008AA004108AB000A16CF
:101380008A113622831603132608B6002708B700F1
:101390002808B80008000B304502031C6D2A0330F2
:1013A000B900390883120313C200831603134508DA
:1013B000BA00BB013A0883120313B8008316031363
:1013C0003B0883120313B9000A30B6000030B7009F
:1013D0000A168A159D240A128A15831203133608E9
:1013E0000A168A1546230A128A15503E84000A16E8
:1013F0008A1100200A128A1583160313A6000A1602
:101400008A1100200A128A15A7000A168A110020E4
:101410000A128A15A8000330BC003C08831203138B
:10142000C2000A30BD000030BE0083160313450819
:10143000BD00BE013D0883120313BF0083160313D2
:101440003E0883120313C0000A168A1582270A1267
:101450008A15831203133D08093E0A168A1546238E
:101460000A128A15503E84000A168A1100200A12B8
:101470008A1583160313A9000A168A1100200A127E
:101480008A15AA000A168A1100200A128A15AB00D2
:101490000A168A1136220A128A15831603132608A1
:1014A000C2002708C3002808C4000030A60000308E
:1014B000A7003F30A8004208A9004308AA0044083A
:1014C000AB000A168A113622831603132608B600CB
:1014D0002708B7002808B80008000030A600003030
:1014E000A7003F30A8000330B90039088312031366
:1014F000C2008316031345080A168A1546230A12EA
:101500008A15503E84000A168A1100200A128A1594
:1015100083160313A9000A168A1100200A128A15DD
:10152000AA000A168A1100200A128A15AB000A16B0
:101530008A113622831603132608B6002708B7003F
:101540002808B8000800303083160313E10059085A
:10155000840083175A1C8313610880000130D90767
:101560000318DA0AFF3083160317A5070318A60A23
:10157000FF30A607250826040319062DA32A831683
:101580000317141BF62A130884008313000883161C
:101590000313E100840A0008E200610883160317C0
:1015A0009C00831603136208831603179D00003006
:1015B0009D1BFF309E009F00023083160313E10045
:1015C00061088316031793079F1F142B033094049D
:1015D000003095049C099D099E099F099C0A0319E6
:1015E0009D0A03199E0A03199F0A142B13088400ED
:1015F0008313000883160313E100840A0008E20045
:101600006108831603179C00831603136208831670
:1016100003179D009E019F01023083160313E10012
:10162000610883160317930725082604031D242B3E
:101630001F081E041D041C04031D242B0130A507D4
:101640000318A60A0030A607A701A70A0A30270632
:1016500003197A2B270883160313E10001300310C6
:10166000E10DFF3E031D2F2B0310610D013E840091
:101670000A168A1100200A128A15E2000A168A1137
:1016800000200A128A15E3000A168A1100200A12A5
:101690008A15E4000A168A1100200A128A15E5004C
:1016A0006508831603171F02031D6C2B8316031393
:1016B0006408831603171E02031D6C2B8316031385
:1016C0006308831603171D02031D6C2B8316031377
:1016D0006208831603171C02031C7A2B0130831641
:1016E0000313E100610883160317A7070A302706D2
:1016F000031D2A2B270883160313E100E201E11BD7
:10170000E2036208803AE300831603172608803A52
:10171000831603136302031D932B831603172508F7
:101720008316031361020318A02B831603172508E1
:1017300083160313E100610883160317A700C22B69
:1017400083160317270883160313E100E201E11B48
:10175000E203831603172608803A83160313E30077
:101760006208803A6302031DB92B610883160317D0
:1017700025020318C22B831603172708A500A6010C
:10178000A51BA60383160317160817040319E02BDD
:101790000330140583160313E1000030831603178A
:1017A000150583160313E200610862040319E02B98
:1017B000FF308316031796070318970AFF30970721
:1017C00083160317151F052C2608803A831603136A
:1017D000E100831603171708803A8316031361028A
:1017E000031DF62B83160317160825020318012C78
:1017F00083160317250896022608031C97039702F1
:10180000052C8316031796019701270883160313E7
:10181000E100E201E11BE2036208803AE300831683
:1018200003171708803A831603136302031D1E2C47
:101830008316031716088316031361020318362C48
:1018400083160317270883160313E100E201E11B47
:10185000E2036108831603179602831603136208D6
:1018600083160317031C970397023A2C831603175A
:1018700096019701160817040319592C2030831676
:101880000313E1005908840083175A1C831361086D
:1018900080000130D9070318DA0AFF3083160317D6
:1018A00096070318970AFF30970716081704031DB9
:1018B0003E2C0330140583160313E1000030831619
:1018C0000317150583160313E20061086204031968
:1018D000762C2D30E1005908840083175A1C83139D
:1018E000610880000130D9070318DA0AFF30831637
:1018F0000317A5070318A60AFF30A607250A031930
:10190000260A0319062D00300313A3000030A2009D
:101910000030A1000A30A0008316031725088316A3
:101920000313E10001300310E10DFF3E031D932C72
:101930000310610D013E84000A168A1100200A126C
:101940008A1583120313B6000A168A1100200A12A0
:101950008A15B7000A168A1100200A128A15B800E3
:101960000A168A1100200A128A15B9008316031775
:101970001F0883120313BD00831603171E0883126A
:101980000313BC00831603171D0883120313BB0047
:10199000831603171C0883120313BA000A168A154C
:1019A00048260A128A158312031339088316031373
:1019B000A70083120313380883160313A6008312AB
:1019C0000313370883160313A50083120313360885
:1019D00083160313A4000A168A15EA240A128A152C
:1019E000831603132008303EE200620883160317B3
:1019F000A7002708831603136A2C831603135908BC
:101A0000840083175A1C8313800108000A128A116C
:101A1000372883160313BE00BE1F882EBE09BE0AD8
:101A20003E08803A123E031CE72D0330B900390806
:101A300083120313C2000A30BD000030BE008316BB
:101A400003133E0883120313B800B901B81BB9038E
:101A50006430B6000030B7000A168A159D240A12B9
:101A60008A15831203133708C0003608BF000A1610
:101A70008A1582270A128A15831203133D08093E2C
:101A80000A168A1546230A128A15503E84000A1641
:101A90008A1100200A128A1583160313A6000A165B
:101AA0008A1100200A128A15A7000A168A1100203E
:101AB0000A128A15A8000330BA003A0883120313E9
:101AC000C2006430BD000030BE00831603133E0820
:101AD00083120313BF00C001BF1BC0030A168A157F
:101AE00082270A128A15831203133D08123E0A1632
:101AF0008A1546230A128A15503E84000A168A1156
:101B000000200A128A1583160313A9000A168A11E7
:101B100000200A128A15AA000A168A1100200A1249
:101B20008A15AB000A168A1136220A128A15831604
:101B300003132608BB002708BC002808BD0003309B
:101B4000B900390883120313C200831603133E0839
:101B500083120313B800B901B81BB9030A30B600E9
:101B60000030B7000A168A159D240A128A158312BE
:101B7000031336080A168A1546230A128A15503EA0
:101B800084000A168A1100200A128A15831603138C
:101B9000A6000A168A1100200A128A15A7000A1642
:101BA0008A1100200A128A15A8003B08A9003C08E7
:101BB000AA003D08AB000A168A11362283160313C9
:101BC0002608B6002708B7002808B80008003E0815
:101BD000803A753E031C652E0330B9003908831224
:101BE0000313C200831603133E0883120313B800C5
:101BF000B901B81BB9030A30B6000030B7000A16A5
:101C00008A159D240A128A158312031336080A16B0
:101C10008A1546230A128A15503E84000A168A1134
:101C200000200A128A1583160313A6000A168A11C9
:101C300000200A128A15A7000A168A1100200A122B
:101C40008A15A8000330BA003A0883120313C200B1
:101C50000A30BD000030BE00831603133E08831215
:101C60000313BF00C001BF1BC0030A168A158227D9
:101C70000A128A15831203133D08093E0A168A15B3
:101C800046230A128A15503E84000A168A11002043
:101C90000A128A1583160313A9000A168A11002056
:101CA0000A128A15AA000A168A1100200A128A1539
:101CB000AB000A168A113622831603132608B600D3
:101CC0002708B7002808B80008000330B900390811
:101CD00083120313C200831603133E080A168A15E3
:101CE00046230A128A15503E84000A168A110020E3
:101CF0000A128A1583160313B6000A168A110020E9
:101D00000A128A15B7000A168A110020B8000800C6
:101D10003E08803A123E031C5F2F0330B900390899
:101D200083120313C2000A30BD000030BE008316C8
:101D300003133E0883120313B800B901B81BB9039B
:101D40006430B6000030B7000A168A159D240A12C6
:101D50008A15831203133708C0003608BF000A161D
:101D60008A1582270A128A15831203133D08093E39
:101D70000A168A1546230A128A15293E84000A1675
:101D80008A1100200A128A1583160313A6000A1668
:101D90008A1100200A128A15A7000A168A1100204B
:101DA0000A128A15A8000330BA003A0883120313F6
:101DB000C2006430BD000030BE00831603133E082D
:101DC00083120313BF00C001BF1BC0030A168A158C
:101DD00082270A128A15831203133D08123E0A163F
:101DE0008A1546230A128A15293E84000A168A118A
:101DF00000200A128A1583160313A9000A168A11F5
:101E000000200A128A15AA000A168A1100200A1256
:101E10008A15AB000A168A1136220A128A15831611
:101E200003132608BB002708BC002808BD000330A8
:101E3000B900390883120313C200831603133E0846
:101E400083120313B800B901B81BB9030A30B600F6
:101E50000030B7000A168A159D240A128A158312CB
:101E6000031336080A168A1546230A128A15293ED4
:101E700084000A168A1100200A128A158316031399
:101E8000A6000A168A1100200A128A15A7000A164F
:101E90008A1100200A128A15A8003B08A9003C08F4
:101EA000AA003D08AB000A168A11362283160313D6
:101EB0002608B6002708B7002808B80008003E0822
:101EC000803A753E031CDD2F0330B90039088312B8
:101ED0000313C200831603133E0883120313B800D2
:101EE000B901B81BB9030A30B6000030B7000A16B2
:101EF0008A159D240A128A158312031336080A16BE
:101F00008A1546230A128A15293E84000A168A1168
:101F100000200A128A1583160313A6000A168A11D6
:101F200000200A128A15A7000A168A1100200A1238
:101F30008A15A8000330BA003A0883120313C200BE
:101F40000A30BD000030BE00831603133E08831222
:101F50000313BF00C001BF1BC0030A168A158227E6
:101F60000A128A15831203133D08093E0A168A15C0
:101F700046230A128A15293E84000A168A11002077
:101F80000A128A1583160313A9000A168A11002063
:101F90000A128A15AA000A168A1100200A128A1546
:101FA000AB000A168A113622831603132608B600E0
:101FB0002708B7002808B80008000330B90039081E
:101FC00083120313C200831603133E080A168A15F0
:101FD00046230A128A15293E84000A168A11002017
:101FE0000A128A1583160313B6000A168A110020F6
:101FF0000A128A15B7000A168A110020B8000800D4
:1020000010308A000408840A820700340134003446
:10201000003400340A3400340034003464340034B2
:1020200000340034E83403340034003410342734EE
:1020300000340034A0348634013400344034423457
:102040000F34003480349634983400340034E13452
:10205000F53405340034CA349A343B3400348034C7
:102060003F340034203441340034C8344234003426
:102070007A34443440341C3446345034C334473406
:10208000243474344934973418344B34BC34BE345B
:102090004C346B346E344E3403341534503479344C
:1020A000AD346034F33449347134003480343F3417
:1020B000CD34CC343D34D73423343C3412348334DF
:1020C0003A34B734D1343834C6342734373438341A
:1020D00086343534C034D6343334CC342B343234B3
:1020E000703489343034E734DB342E34E5343C3416
:1020F0001E344234A2340D3476346F346C3474346C
:1021000069346D346534743472346F34203441343E
:102110004E342534753400340034253431342E34B3
:1021200033346634563420342F342F34203425345D
:10213000343469340034003483120313380837040C
:102140003604031908008030B80608008E30831268
:102150000313C2004208C300FF3041050319BE2823
:1021600001300310C10CC00CBF0CBE0CFF3E031DA0
:10217000B1280130C2004208C307AC283E08B600AF
:102180003F08B7004008B8004308C2004208B90041
:10219000BA010A168A151427831203133608BE00E3
:1021A0003708BF003808C0000800831603133F0833
:1021B000C3004008C4004108C5000310440D450D8C
:1021C000C6004608CC004C08031DEF280030C200B2
:1021D0000030C1000030C0000030BF0008003F08E0
:1021E000C3004008C4004108C50017300310C50CE7
:1021F000C40CC30CFF3E031DF6284308C600460866
:10220000C700C017FF30BF05FF30C0050030C10553
:102210003F08C8004008C9004108CA00CB018E3001
:10222000CC02CC1F31294C08803A8F3E031821295B
:102230000030C2000030C1000030C0000030BF00DC
:10224000080001300310CB0CCA0CC90CC80CFF3EAF
:10225000031D22290130C3004308CC0703194C2970
:10226000212918304C02031C49290030C2000030DB
:10227000C1000030C0000030BF0008000130C300C2
:102280000310C80DC90DCA0DCB0DC30B4029013079
:10229000CC024C08031D3E29470803195A29C809D6
:1022A000C909CA09CB09C80A0319C90A0319CA0A04
:1022B0000319CB0A4B08C2004A08C1004908C000F4
:1022C0004808BF000800831203132008A600210855
:1022D000A7002208A8000310270D280DA90029082F
:1022E000AA002A08031D7B290030A0000030A100AD
:1022F0000030A20008002308A6002408A700250833
:10230000A8000310270D280DA9002908AF002F08E9
:10231000031D91290030A0000030A1000030A20070
:1023200008002F087B3EA6002608AA072008A60062
:102330002108A7002208A80010300310A80CA70C41
:10234000A60CFF3E031D9D292608A9002908AF0001
:102350002308A6002408A7002508A80010300310B1
:10236000A80CA70CA60CFF3E031DAF292608A90048
:102370002908AF068030A6002608AF05A117A417CC
:10238000FF30A305FF30A4050030A5050030AB00E9
:102390000030AC000030AD000730A6002608AE00CB
:1023A000201CE0292308AB07240803110318240A82
:1023B000031DAC07250803110318250A031DAD07EB
:1023C00001300310A20CA10CA00CFF3E031DE1295B
:1023D00001300310A30DA40DA50DFF3E031DE92937
:1023E0000130AE02031DD0290930A6002608AE0038
:1023F000201C082A2308AB07240803110318240A09
:10240000031DAC07250803110318250A031DAD079A
:1024100001300310A20CA10CA00CFF3E031D092AE1
:1024200001300310AD0CAC0CAB0CFF3E031D112AA8
:102430000130AE02031DF8292B08F0002C08F10032
:102440002D08F2002A08A6002608F3002F08A7008E
:102450002708F4000A168A15A826700883120313A9
:10246000A0007108A1007208A200080083160313DF
:102470002608AC002708AD002808AE0003102D0D7B
:102480002E0DAF002F08B0003008031D4E2A00307B
:10249000A6000030A7000030A80008002908AC0002
:1024A0002A08AD002B08AE0003102D0D2E0DAF0035
:1024B0002F08B5003508031D642A0030A60000303F
:1024C000A7000030A800080035087B3EAC002C08AF
:1024D000B0072608AC002708AD002808AE00103071
:1024E0000310AE0CAD0CAC0CFF3E031D702A2C0883
:1024F000AF002F08B5002908AC002A08AD002B0852
:10250000AE0010300310AE0CAD0CAC0CFF3E031D42
:10251000822A2C08AF002F08B5068030AC002C08AA
:10252000B505A717AA17FF30A905FF30AA05003087
:10253000AB050030B1000030B2000030B30007300E
:10254000AC002C08B400261CB32A2908B1072A08BD
:10255000031103182A0A031DB2072B0803110318DD
:102560002B0A031DB30701300310A80CA70CA60CFF
:10257000FF3E031DB42A01300310A90DAA0DAB0DB7
:10258000FF3E031DBC2A0130B402031DA32A0930FB
:10259000AC002C08B400261CDB2A2908B1072A0845
:1025A000031103182A0A031DB2072B08031103188D
:1025B0002B0A031DB30701300310A80CA70CA60CAF
:1025C000FF3E031DDC2A01300310B30CB20CB10C2A
:1025D000FF3E031DE42A0130B402031DCB2A31085B
:1025E00083120313B60083160313320883120313F6
:1025F000B70083160313330883120313B80083163E
:1026000003133008AC002C0883120313B90083169F
:1026100003133508AD002D0883120313BA000A1600
:102620008A15142783120313360883160313A60092
:1026300083120313370883160313A70083120313AF
:10264000380883160313A800080083120313360802
:10265000BC003708BD003808BE0003103D0D3E0D1C
:10266000BF003F0883160313A5002508031D432B55
:10267000003083120313B9000030B8000030B700F7
:102680000030B600080083123908BC003A08BD00CB
:102690003B08BE0003103D0D3E0DBF003F088316F2
:1026A0000313A4002408031D602B003083120313BE
:1026B000B9000030B8000030B7000030B6000800A4
:1026C00083120313B717FF30B605FF30B70500308C
:1026D000B805BA17FF30B905FF30BA050030BB05A1
:1026E000003083160313A3000030A2000030A100C5
:1026F0000030A0007F30A502983024078312031316
:10270000BC003C0883160313A50218308312031380
:10271000BC003C0883160313A4000130831203138A
:10272000BC00031083160313A00DA10DA20DA30D71
:1027300083120313BC0B912B3B083802031DA62BFD
:102740003A083702031DA62B39083602031CB52BA5
:102750003908B6023A08031C3A0FB7023B08031CBB
:102760003B0AB802831603132014013003108312AE
:10277000B60DB70DB80DFF3E031DB62B0130831605
:102780000313A402031D8D2BA51FEC2B2508803AF3
:10279000973E0318D62B003083120313B900003084
:1027A000B8000030B7000030B60008000130031058
:1027B00083160313A30CA20CA10CA00CFF3E031D57
:1027C000D72B013083120313BC003C08831603137C
:1027D000A5070319122CD62B18302502031C0D2C2B
:1027E000003083120313B9000030B8000030B70086
:1027F0000030B600080001308312BC0003108316BD
:102800000313A00DA10DA20DA30D83120313BC0B86
:10281000FE2B013083160313A5028316031325082C
:10282000031DFB2B230883120313B9008316031324
:10283000220883120313B80083160313210883129E
:102840000313B70083160313200883120313B60083
:102850000800831603134608CC004708CD0048083B
:10286000CE0003104D0D4E0DCF004F08D200490889
:10287000CC004A08CD004B08CE0003104D0D4E0D84
:10288000CF004F08D10052080319522C51085202B0
:102890000318592C5203FF3A5107CC0019304C024F
:1028A000031C592C4908C6004A08C7004B08C80039
:1028B0000800510803190800520851020318682C37
:1028C0005103FF3A5207CC0019304C02031808009C
:1028D0000630CC004C08D000C81BD017CB1B5017BB
:1028E000C717FF30C605FF30C7050030C805CA1737
:1028F000FF30C905FF30CA050030CB055108520230
:102900000318A82C01300310C90DCA0DCB0DFF3ED2
:10291000031D832C0130D102510852060319A32C48
:102920000130D002500807390319A32C822C013042
:102930000310C80CC70CC60CFF3E031D982C0130B9
:10294000CC004C08D207520851060319D12C972C01
:10295000520851020318D12C01300310C60DC70DC7
:10296000C80DFF3E031DAD2C0130D20251085206A6
:102970000319CD2C0130D002500807390319CD2C92
:10298000AC2C01300310CB0CCA0CC90CFF3E031D4C
:10299000C22C0130CC004C08D10752085106031D4F
:1029A000C12CD01FE32CFF30C606FF30C706FF3016
:1029B000C8060130C607003003180130C7070030D1
:1029C00003180130C807501FF52CFF30C906FF302F
:1029D000CA06FF30CB060130C907003003180130AA
:1029E000CA07003003180130CB07D0014608C907D9
:1029F000470803110318470A031DCA0748080311B3
:102A00000318480A031DCB07CB1F182DFF30C9063A
:102A1000FF30CA06FF30CB060130C907003003186B
:102A20000130CA07003003180130CB07D001D00AAB
:102A3000490883120313B600831603134A0883124E
:102A40000313B700831603134B0883120313B80054
:102A5000831603135208CC004C0883120313B900E9
:102A6000831603135008CD004D0883120313BA00D8
:102A70000A168A15142783120313360883160313C4
:102A8000C60083120313370883160313C70083128B
:102A90000313380883160313C8000800C3308312D9
:102AA0000313B700CC30B600B60B542DB70B542D22
:102AB00000008312031306138612061086100615F3
:102AC00086150616213083120313B7007530B60041
:102AD000B60B682DB70B682D6D2D831203130612EC
:102AE000213083120313B7007530B600B60B762D74
:102AF000B70B762D7B2D8312031306138612061057
:102B00008610061586150616213083120313B700AA
:102B10007530B600B60B8A2DB70B8A2D8F2D831218
:102B200003130612413083120313B700ED30B600D1
:102B3000B60B982DB70B982D9D2D831203130613FA
:102B4000861206108610061586110616213083128D
:102B50000313B7007530B600B60BAC2DB70BAC2D18
:102B6000B12D831203130612213083120313B70011
:102B70007530B600B60BBA2DB70BBA2DBF2D831228
:102B80000313061386120610861006158611061604
:102B9000213083120313B7007530B600B60BCE2D6B
:102BA000B70BCE2DD32D83120313061206138612F4
:102BB000061486140616213083120313B7007530ED
:102BC000B600B60BE12DB70BE12DE62D83120313F2
:102BD0000612213083120313B7007530B600B60B0E
:102BE000EF2DB70BEF2DF42D83120313061386126E
:102BF0000610861006118611061621308312031363
:102C0000B7007530B600B60B032EB70B032E082E97
:102C10008312031306120613861206148610061179
:102C200086110616213083120313B7007530B600E3
:102C3000B60B182EB70B182E1D2E83120313061277
:102C4000213083120313B7007530B600B60B262E61
:102C5000B70B262E2B2E8312031306138612061093
:102C60008610061186110616213083120313B70051
:102C70007530B600B60B3A2EB70B3A2E3F2E8312A4
:102C80000313061206138612061086100611861507
:102C90000616213083120313B7007530B600B60B49
:102CA0004F2EB70B4F2E542E8312031306122130D2
:102CB00083120313B7007530B600B60B5D2EB70B49
:102CC0005D2E622E831203130613861206108610E1
:102CD000061186110616213083120313B7007530D2
:102CE000B600B60B712EB70B712E762E831203131E
:102CF0000612061386120614861406158611061689
:102D0000213083120313B7007530B600B60B862E40
:102D1000B70B862E8B2E8312031306120800363053
:102D200084008313000883120313BC00840A000884
:102D3000BD00840A0008BE00840A0008BF0003101A
:102D40003E0D3F0DC000400883160313A500250863
:102D5000031DB52E003083120313B9000030B800F4
:102D60000030B7000030B600080039308400000899
:102D70008312BC00840A0008BD00840A0008BE005B
:102D8000840A0008BF0003103E0D3F0DC00040083C
:102D900083160313A4002408031DD92E00308312C8
:102DA0000313B9000030B8000030B7000030B6009F
:102DB00008003630840000308004840A003080042B
:102DC000840A80308004840A003080043630840015
:102DD000FF308005840AFF308005840AFF308005BB
:102DE000840A003080053930840000308004840A71
:102DF00000308004840A80308004840A003080041B
:102E000039308400FF308005840AFF308005840A51
:102E1000FF308005840A00308005003083160313DC
:102E2000A3000030A2000030A1000030A0007F30DD
:102E3000A502A030240783120313BC003C088316AC
:102E40000313A502203083120313BC003C08831631
:102E50000313A400013083120313BC000310831674
:102E60000313A00DA10DA20DA30D83120313BC0B20
:102E70002E2F393084000008BC00840A0008BD00F1
:102E8000840A0008BE00840A0008BF0036308400AF
:102E90000008C000840A0008C100840A0008C200BB
:102EA000840A0008C3003F084302031D612F3E0847
:102EB0004202031D612F3D084102031D612F3C08A2
:102EC0004002031C882F393084000008BC00840AAB
:102ED0000008BD00840A0008BE00840A0008BF0084
:102EE000363084003C088002840A3D08031C3D0FF4
:102EF0008002840A3E08031C3E0F8002840A3F08B9
:102F0000031C3F0A8002033084028316031320143B
:102F1000363084000310800D840A800D840A800DF1
:102F2000840A800D84038403840301308316031311
:102F3000A402031D2A2FA51FC32F2508803A9F3EF8
:102F40000318AD2F003083120313B9000030B8000E
:102F50000030B7000030B6000800013003108316BF
:102F60000313A30CA20CA10CA00CFF3E031DAE2F5B
:102F7000013083120313BC003C0883160313A5071A
:102F80000319E92FAD2F20302502031CE42F003058
:102F900083120313B9000030B8000030B7000030CE
:102FA000B600080001308312BC000310831603131F
:102FB000A00DA10DA20DA30D83120313BC0BD52FE1
:102FC000013083160313A502831603132508031D7E
:102FD000D22F230883120313B90083160313220888
:102FE00083120313B80083160313210883120313FB
:102FF000B70083160313200883120313B6000800DA
:1035DA0064008001840A0406031900340406EE2AF2
:1035EA0083120313B700B6013A3037020318032BCC
:1035FA0030303702031C032BB601B60A360C08001A
:10360A007808F0007908F100F2018E30FB007B089F
:10361A00F300F4010A168A15A8267008F800710842
:10362A00F9007208FA0008000330831603178800AD
:10363A0089010330831603138500803086001F1228
:10364A009F129F178530831203139F0085018601FD
:10365A0008008312031310083038900090101013DA
:10366A000B308F00DC308E000C108B170B17831673
:10367A0003130C14831203131014831603130C1769
:10368A00080083160313A500A401251C542B8312DA
:10369A0003134208C300430883160313A407031045
:1036AA0083120313C20D031083160313A50C2508F6
:1036BA00031D4A2B240808008312031306178612D7
:1036CA000616213083120313B7007530B600B60B05
:1036DA006C2BB70B6C2B712B8312031306128230DF
:1036EA0083120313B700DD30B600B60B7A2BB70B83
:1036FA007A2B08000A168A1519230A168A150A1639
:10370A008A152E230A168A150A168A114E250A16B2
:10371A008A150A128A1523200A168A150A168A1584
:10372A0055240A168A150A168A1538250A168A157C
:10373A008E2B831603135508540453040319A72B1D
:10374A008030D5065608C6005708C7005808C80072
:10375A005308C9005408CA005508CB000A168A1132
:10376A002924831603134608D3004708D4004808BF
:10377A00D500080083120313861206130614861452
:10378A00061186110616213083120313B70075300D
:10379A00B600B60BCE2BB70BCE2BD32B831203134B
:1037AA0006128612061306108610061186110616D0
:1037BA00213083120313B7007530B600B60BE32B22
:1037CA00B70BE32BE82B83120313061208008312AC
:1037DA00031386120613061486100611861106169E
:1037EA00213083120313B7007530B600B60BFB2BDA
:1037FA00B70BFB2B002C8312031306128612061337
:10380A00061086100611861106162130831203133C
:10381A00B7007530B600B60B102CB70B102C152C50
:10382A0083120313061208007C080139831203135A
:10383A00B600B60DB60DB60D06083606F7393606C9
:10384A0086007C08B6000310360C0139B700B70DA4
:10385A00B70D06083706FB39370686007C08B6001E
:10386A0002300310B60CFF3E031D362C3608013910
:10387A00B700B70D06083706FD39370686007C08FB
:10388A00B60003300310B60CFF3E031D472C01306F
:10389A003605B70006083706FE39370686000800DF
:1038AA00831603136C0884008313000803190800A5
:1038BA00831603136C08840083130008831203130E
:1038CA00B8003808FC007C08B80004300310B80CB3
:1038DA00FF3E031D6B2C3808B9003908FC000A1694
:1038EA008A1519240A168A150A168A1561230A16D0
:1038FA008A15831603136C088400831300080F3992
:10390A0083120313B8003808FC000A168A15192412
:10391A000A168A150A168A1561230A168A150130AB
:10392A0083120313B800380883160313EC07552CC7
:10393A0083120313BC01B91FA92CB809B909B80A23
:10394A000319B90ABC01BC0AB71FB02CB609B709DA
:10395A00B60A0319B70A360837040319DD2CBB0166
:10396A00BB0AB71BC42C01300310B60DB70DFF3EBE
:10397A00031DB92C0130BA003A08BB07B62C370828
:10398A003902031DCA2C36083802031CD22C360809
:10399A00B8023708031CB903B90201300310B70C87
:1039AA00B60CFF3E031DD32C0130BB02031DC42CF1
:1039BA003C080319E52CB809B909B80A0319B90A68
:1039CA003908B7003808B60008008316031323081D
:1039DA0022042104200403192F2DA901A90AA31BDB
:1039EA00042D0130A8000310A00DA10DA20DA30DF6
:1039FA00A80BF82C0130A8002808A907F42C2308E2
:103A0A002702031D122D22082602031D122D21084A
:103A1A002502031D122D20082402031C222D200832
:103A2A00A4022108031C210FA5022208031C220F4D
:103A3A00A6022308031C230FA70201300310A30CBC
:103A4A00A20CA10CA00CFF3E031D232D0130A902DC
:103A5A00031D042D2708A3002608A2002508A1009B
:103A6A002408A00008000A168A15BF230A168A1518
:103A7A00831603136B088400831700080319852D26
:103A8A00831603136B088400831700088312031339
:103A9A00B8003808FC007C08B80004300310B80CE1
:103AAA00FF3E031D532D3808B9003908FC000A16D9
:103ABA008A1519240A168A150A168A1561230A16FE
:103ACA008A15831603136B088400831700080F39BD
:103ADA0083120313B8003808FC000A168A15192441
:103AEA000A168A150A168A1561230A168A150130DA
:103AFA0083120313B800380883160313EB073D2D0E
:103B0A000A168A15EC23080083120313B81FB22D74
:103B1A000030BC000030BD008030BE003609BF0056
:103B2A003709C0003809C100BF0A0319C00A0319BE
:103B3A00C10A3F08BC0740080318400FA52DA62D4F
:103B4A00BD0741080318410FAB2DAC2DBE073C0839
:103B5A00B6003D08B7003E08B800BB1FD92D00309B
:103B6A00BC000030BD008030BE003909BF003A09F0
:103B7A00C0003B09C100BF0A0319C00A0319C10AE0
:103B8A003F08BC0740080318400FCC2DCD2DBD07B8
:103B9A0041080318410FD22DD32DBE073C08B900A6
:103BAA003D08BA003E08BB008030B8068030BB062C
:103BBA003B083802031D08003A083702031D0800B3
:103BCA003908360208000C1CF92D0C100130B0001F
:103BDA003008C9070B308F00DC308E0005304906EB
:103BEA00031DF92DC9019F140C1F3D2E0C131E082D
:103BFA00B000B1013008C7003108C8004708B10059
:103C0A00B0013008C7003108C800831603131E0824
:103C1A00831203134707B00048080318480AB10083
:103C2A003008C7003108C8002830A000A030A10021
:103C3A003B30A2004808F9004708F8000A168A151E
:103C4A0005230A168A15780883120313A300790834
:103C5A00A4007A08A5000A168A1163210A168A1591
:103C6A00831203132008C4002108C5002208C600D5
:103C7A003508FF0034088A0033088400320E8300B6
:103C8A00FE0E7E0E0900003083120313C2000030BC
:103C9A00C1000030C0000030BF00390838043704C2
:103CAA00360403199F2EC301C30AB91B6A2E0130B9
:103CBA00BE000310B60DB70DB80DB90DBE0B5E2EC2
:103CCA000130BE003E08C3075A2E0130BE00031061
:103CDA00BF0DC00DC10DC20DBE0B6C2E39083D02C1
:103CEA00031D812E38083C02031D812E37083B0232
:103CFA00031D812E36083A02031C922E3608BA0298
:103D0A003708031C370FBB023808031C380FBC02E4
:103D1A003908031C390FBD023F1401300310B90CD6
:103D2A00B80CB70CB60CFF3E031D932E0130C3022C
:103D3A00031D6A2E4208B9004108B8004008B700BE
:103D4A003F08B600080073080319B02E7208710400
:103D5A007004031DC32E0030F0000030F100003063
:103D6A00F20008000130F5007508F307013003106E
:103D7A00F20CF10CF00CFF3E031DBC2EFE30720556
:103D8A000319DE2EB72E0130F5007508F30701304E
:103D9A00F007003003180130F10700300318013032
:103DAA00F20701300310F20CF10CF00CFF3E031D78
:103DBA00D72EFF3072050319ED2EC82E0130F302FB
:103DCA0001300310F00DF10DF20DFF3E031DE62E3A
:103DDA00F11BF32E023073020318E32E7318FB2E25
:103DEA00FF30F0057F30F105FF30F2050310F30CC8
:103DFA007308F500F601F70110300310F50DF60D02
:103E0A00F70DFF3E031D022F7508F0047608F10432
:103E1A007708F204740803190800F21708008312DD
:103E2A000313390803191E2F380837043604031DF3
:103E3A00312F0030B6000030B7000030B80008005B
:103E4A000130BB003B08B90701300310B80CB70CAE
:103E5A00B60CFF3E031D2A2FFE30380503194C2FDE
:103E6A00252F0130BB003B08B9070130B6070030E7
:103E7A0003180130B707003003180130B8070130C2
:103E8A000310B80CB70CB60CFF3E031D452FFF30CC
:103E9A00380503195B2F362F0130B90201300310A0
:103EAA00B60DB70DB80DFF3E031D542FB71B612F7A
:103EBA00023039020318512F3918692FFF30B6051D
:103ECA007F30B705FF30B8050310B90C3908BB00BD
:103EDA00BC01BD0110300310BB0DBC0DBD0DFF3E72
:103EEA00031D702F3B08B6043C08B7043D08B8040C
:103EFA003A0803190800B817080083160313A1012A
:103F0A0083120313BE1F922FBD09BE09BD0A0319EE
:103F1A00BE0A83160313A101A10A8312C01FA02F90
:103F2A00BF09C009BF0A0319C00A0130C10041080C
:103F3A0083160313A10683160313A201A301831296
:103F4A0003133D083E040319EB2F83160313A00144
:103F5A00A00A83120313BE1BC12F01308312031060
:103F6A00BD0DBE0DFF3E031DB42F0130C100410837
:103F7A0083160313A007AE2F013083160313031011
:103F8A00A20DA30DFF3E031DC42F831203133E0887
:103F9A004002031DD22F3D083F02031CDD2F3D08BE
:103FAA00BF023E08031CC003C00283160313221477
:103FBA00013083120310BE0CBD0CFF3E031DDF2F20
:103FCA00013083160313A002031DC12F83160313A6
:103FDA0021080319F52FA209A309A20A0319A30AA2
:103FEA00230883120313BE008316031322088312C5
:063FFA000313BD000800E6
:04400E00F2EFFFFFCF
:00000001FF
