:060000000A128A11DE2F36
:100B8E0083160317880189018316031386018312C6
:100B9E000313860108007E088A007F088200D22592
:100BAE000A128A118000840A04087D060319003493
:100BBE00FF0A0319FE0AD62D48344F344C34413403
:100BCE0020344D3455344E3444344F342134203493
:100BDE006B340034003400340034003400340034FC
:100BEE000A128A11D2260A128A110A128A11C725EE
:100BFE000A128A110A128A110C260A128A110A1274
:100C0E008A117D260A128A11002834308400203081
:100C1E00F0000408F1001430F20070088400831311
:100C2E000008F300F00A7108840073088000F10ACE
:100C3E00F20B142E3430F0007008F8000800831206
:100C4E0003130617861206162130F1007630F000D7
:100C5E00F00B2F2EF10B2F2E000083120313061212
:100C6E008230F100DD30F000F00B3B2EF10B3B2E0D
:100C7E00402E080076080139F000F00DF00DF00D51
:100C8E008312031306087006F7397006860076087D
:100C9E00F0000310700C0139F100F10DF10D060892
:100CAE007106FB39710686007608F00002300310DB
:100CBE00F00CFF3E031D5E2E70080139F100F10DA0
:100CCE0006087106FD39710686007608F0000330BD
:100CDE000310F00CFF3E031D6F2E01307005F10066
:100CEE0006087106FE397106860008006B30F200A8
:100CFE007208F5007808840083130008750603193E
:100D0E00BE2E7808840083130008F2007208F700E4
:100D1E007708F2007208F6007608F200043003102D
:100D2E00F20CFF3E031D962E7208F3007308F600B8
:100D3E000A128A1141260A128A110A128A112626CD
:100D4E000A128A1177080F39F2007208F6000A1299
:100D5E008A1141260A128A110A128A1126260A12AD
:100D6E008A117808013EF2007208F800812E780888
:100D7E00840000087506031D08005C30F400513035
:100D8E00F3006030F200F20BCA2EF30BCA2EF40BF6
:100D9E00CA2E00000800C330F100CD30F000F00B79
:100DAE00D62EF10BD62E83120313061386120610BF
:100DBE0086100615861506162130F1007630F000E5
:100DCE00F00BE72EF10BE72E000083120313061231
:100DDE002130F1007630F000F00BF32EF10BF32EF4
:100DEE0000008312031306138612061086100615D2
:100DFE00861506162130F1007630F000F00B052F27
:100E0E00F10B052F00008312031306122130F1009F
:100E1E007630F000F00B112FF10B112F000083161E
:100E2E00031314182F2F83120313061386120610A2
:100E3E0086100615861106162130F1007630F00068
:100E4E00F00B272FF10B272F00008312031306122E
:100E5E00831603131418592F8312031306138612C5
:100E6E00061086100615861106162130F100763012
:100E7E00F000F00B402FF10B402F000083120313F4
:100E8E000612061386120610861406162130F1007D
:100E9E007630F000F00B512FF10B512F0000831222
:100EAE0003130612831603131418852F83120313CC
:100EBE0006138612061086100611861106162130AC
:100ECE00F1007630F000F00B6A2FF10B6A2F000064
:100EDE0083120313061206138612061486100611C9
:100EEE00861106162130F1007630F000F00B7D2FC2
:100EFE00F10B7D2F000083120313061283160313CA
:100F0E001418B12F831203130613861206108610BF
:100F1E000611861106162130F1007630F000F00B26
:100F2E00962FF10B962F0000831203130612061351
:100F3E008612061086100611861506162130F1004F
:100F4E007630F000F00BA92FF10BA92F00008312C1
:100F5E0003130612831603131418080083120313C7
:100F6E0006138612061086100611861106162130FB
:100F7E00F1007630F000F00BC22FF10BC22F000003
:100F8E008312031306120613861206148614061510
:100F9E00861106162130F1007630F000F00BD52FB9
:100FAE00F10BD52F000083120313061208008313D2
:100FBE003430FD000530FE00E330FF0020308400A9
:100FCE000A128A11D625C801C901CA01CB01CC016A
:100FDE00CD01CE01CF01D001D101D201D301D40177
:100FEE00D501D601F601F701F80183010A128A1123
:020FFE00F72DCD
:04400E00F2EFFFFFCF
:00000001FF
