:060000000A128A11122809
:10000800FE00030EF1000408F2000A08F300831250
:1000180003137F08F4000A128A11132E0A128A1198
:100028001528F80183134730840068300A128A11B2
:100038008D260A128A11A0308400B0300A128A1163
:100048008D2683010A128A11BF2A83120313BA006C
:100058002C30B2003208B500013083120313AB070D
:10006800FF302B0784000A128A1131250A128A11DF
:10007800B2003208BD003D0803199C2925303D0611
:10008800031952283D08B2003A0884003208831345
:1000980080000130B2003208BA073028BB01BC0129
:1000A800B6015B2836150130B2003208AB072B08C1
:1000B80084000A128A1131250A128A11303A03196A
:1000C800562866282B0884000A128A1131250A123C
:1000D8008A110A128A117F260A128A11031CBA2869
:1000E80083120313BB01BC010A3083120313A0005F
:1000F8000030A1003C08A3003B08A2000A128A11A4
:10010800F0250A128A11831203132108BC00200863
:10011800BB002B0884000A128A1131250A128A11A1
:10012800D03EB200FF3003180030B3003208BB07DE
:100138000318BC0A3308BC070130B2003208AB0709
:100148002B0884000A128A1131250A128A110A1210
:100158008A117F260A128A11031CBA287828C0300F
:1001680083120313B2003208B604CE28013083127A
:100178000313AB07FF302B0784000A128A113125BD
:100188000A128A11BD00003A03199C29753A03190D
:10019800B32830283508840083130008B700840A80
:1001A8000008B8000230B2003208B507BD01BD0A28
:1001B80005303D06031901293D08B2003207013E0A
:1001C80084000A128A1131250A128A11B3000A1210
:1001D8008A1131250A128A11B40034083802031D25
:1001E800F72833083702031C01290130B20032080E
:1001F800BD0705303D06031DE0283D08B200B301E8
:10020800B21BB3033308803AB4003C08803A340286
:10021800031D10293B0832020318202983120313F7
:100228003D08B200B301B21BB3033208BB02330866
:10023800031CBC03BC02242983120313BB01BC01A9
:10024800361D3C293B083C04031955293030B200BF
:100258003A0884003208831380000130B200320863
:10026800BA07FF30BB070318BC0AFF30BC072629B2
:100278003B083C04031955292030B2003A08840091
:100288003208831380000130B2003208BA07FF3009
:10029800BB070318BC0AFF30BC073B083C04031D1E
:1002A80040293D08B2003208B900FF30B2003208D8
:1002B800B907390A031930280A30A7000030A80006
:1002C8003908B2003207013E84000A128A1131252A
:1002D8000A128A11A0000A128A1131250A128A11FB
:1002E800A1003808A3003708A2000A128A11B62410
:1002F8000A128A11831203132108AA002008A900F0
:100308000A128A116A250A128A118312031327080E
:10031800303EB3003308BD003D08B2003A088400FF
:100328003208831380000130B2003208BA07592915
:10033800831203133A088400831380010800C33032
:10034800F600CD30F500F50BA729F60BA729831287
:100358000313061386120610861006158615061650
:100368002130F6007630F500F50BB829F60BB829E0
:1003780000008312031306122130F6007630F500D0
:10038800F50BC429F60BC4290000831203130613C6
:100398008612061086100615861506162130F600F8
:1003A8007630F500F50BD629F60BD6290000831216
:1003B800031306122130F6007630F500F50BE2291A
:1003C800F60BE229000083120313061386120610A7
:1003D80086100615861106162130F6007630F500CF
:1003E800F50BF429F60BF429000083120313061207
:1003F8002130F6007630F500F50B002AF60B002ABE
:1004080000008312031306138612061086100615C1
:10041800861106162130F6007630F500F50B122A03
:10042800F60B122A00008312031306120613861213
:100438000614861406162130F6007630F500F50B02
:10044800232AF60B232A00008312031306122130F5
:10045800F6007630F500F50B2F2AF60B2F2A000050
:1004680083120313061386120610861006118611CE
:1004780006162130F6007630F500F50B412AF60B0A
:10048800412A00008312031306120613861206146B
:1004980086100611861106162130F6007630F50012
:1004A800F50B542AF60B542A000083120313061284
:1004B8002130F6007630F500F50B602AF60B602A3D
:1004C8000000831203130613861206108610061105
:1004D800861106162130F6007630F500F50B722AE3
:1004E800F60B722A000083120313061206138612F3
:1004F800061086100611861506162130F60076308D
:10050800F500F50B852AF60B852A000083120313E4
:1005180006122130F6007630F500F50B912AF60B1D
:10052800912A000083120313061386120610861000
:100538000611861106162130F6007630F500F50B07
:10054800A32AF60BA32A000083120313061206132C
:100558008612061486140615861106162130F60032
:100568007630F500F50BB62AF60BB62A0000831292
:100578000313061208000A128A116F260A128A113A
:100588000A128A11A3210A128A110A128A117823DF
:100598000A128A110A128A1147260A128A1183122C
:1005A80003134703031D6B2BC7010A128A11722418
:1005B8000A128A1183120313C501C601C501C601B7
:1005C8004608803AFF0080307F02031DED2A07307D
:1005D80045020318292B831203134508483E84005B
:1005E8000F3083130005BE000A30BF003F08F50036
:1005F8004508483E84000008C00004300310C00CC1
:10060800FF3E031D022B40080F390A128A115C268F
:100618000A128A11831203133E07C1004508483E97
:1006280084004108831380000130C5070318C60AF7
:100638000030C6074608803AFF0080307F02031D5D
:10064800272B07304502031CEF2A0B3083120313B4
:10065800BE003E08AB004C08BF00C0013F08AC001C
:100668004008AD004D08C100C2014108AE00420873
:10067800AF004E08C300C4014308B0004408B100ED
:1006880058300A128A1129200A128A11203083123E
:100698000313BE003E08AB004A08BF00C0013F0874
:1006A800AC004008AD004908C100C2014108AE00D5
:1006B8004208AF004808C300C4014308B00044081A
:1006C800B100A0300A128A1129200A128A11583062
:1006D8000A128A112E240A128A11A0300A128A11CB
:1006E800DD230A128A11D32A831603139401E030FA
:1006F80083120313940007148F3093008316031397
:10070800141C822B83120313930183160313141CE6
:10071800892B8312031307100730F6007D30F5008C
:10072800F50B942BF60B942B8312031307148030CC
:10073800930083160313141C9D2B2030831203137C
:10074800930083160313141CA52B20308312031364
:10075800930083160313141CAD2B2030831203134C
:10076800930083160313141CB52B04308312031350
:10077800930083160313141CBD2B24308312031318
:10078800930083160313141CC52B0530831203131F
:10079800930083160313141CCD2B183083120313F4
:1007A800930083160313141CD52B8312031307100D
:1007B800080083120313A200A3010A128A11C72595
:1007C8000A128A1183120313220884008313000873
:1007D80003192A2C831203132208840083130008A8
:1007E800A0002008A3002308A00004300310A00CD8
:1007F800FF3E031DFA2B2008A1002108A3002308AF
:100808000A128A11F4240A128A110A128A1130264D
:100818000A128A1183120313220884008313000822
:100828000F39A0002008A30023080A128A11F42413
:100838000A128A110A128A1130260A128A11013004
:1008480083120313A0002008A207E62B0A128A11BC
:100858009E25080083120313A200A3012208840026
:100868008313000803190800220884008313000872
:10087800A0002008A3002308A00004300310A00C47
:10088800FF3E031D422C2008A1002108A3002308D5
:100898000A128A11F4240A128A110A128A113026BD
:1008A8000A128A1183120313220884008313000892
:1008B8000F39A0002008A30023080A128A11F42483
:1008C8000A128A110A128A1130260A128A11013074
:1008D80083120313A0002008A207322CF601F701A7
:1008E800831203130714930183160313141C782C23
:1008F800FF3083120313930083160313141C802CF8
:10090800F601F7017708803AFF0080307F02031D67
:100918008F2C073076020318B22C831203131308A6
:10092800F5007608483E8400750883138000F2308D
:10093800930083160313141C9D2C0130F60703182B
:10094800F70A0030F7077708803AFF0080307F0207
:10095800031DB02C07307602031C912C831203135D
:100968000710080083120313A501A601200821041B
:100978000319EF2CA401A40AA11BCE2C01300310EB
:10098800A00DA10DFF3E031DC32C0130F500750815
:10099800A407C02C01300310A50DA60DFF3E031DB2
:1009A800CF2C21082302031DDB2C20082202031C64
:1009B800E42C2008A2022108031CA303A302251487
:1009C80001300310A10CA00CFF3E031DE52C0130E3
:1009D800A402031DCE2C2608A1002508A0000800AB
:1009E800F70077080139F500F50DF50DF50D8312BF
:1009F800031306087506F739750686007708F500AB
:100A08000310750C0139F600F60DF60D060876068A
:100A1800FB39760686007708F50002300310F50CDE
:100A2800FF3E031D122D75080139F600F60D060864
:100A38007606FD39760686007708F5000330031040
:100A4800F50CFF3E031D232D01307505F600060841
:100A58007606FE3976068600080005308A00040806
:100A6800840A82070034013400340A3400346434C0
:100A78000034E834033410342734463445344334DE
:100A880048344134203425343034323475342F34EA
:100A980025343034323475342F34253430343234FC
:100AA8007534003448344F345234413420342534BA
:100AB8003034323475343A34253430343234753481
:100AC8003A34253430343234753400348312031305
:100AD800270828040319992DF701F70AA81B802D68
:100AE80001300310A70DA80DFF3E031D752D013021
:100AF800F6007608F707722D28082A02031D862DAE
:100B080027082902031C8E2D2708A9022808031C80
:100B1800AA03AA0201300310A80CA70CFF3E031D6C
:100B28008F2D0130F702031D802D2A08A8002908FF
:100B3800A7000800831203138612061306148610F2
:100B48000611861106162130F6007630F500F50BF1
:100B5800AB2DF60BAB2D0000831203130612861281
:100B68000613061086100611861106162130F600A7
:100B78007630F500F50BBE2DF60BBE2D0000831266
:100B880003130612080083120313861206130614B1
:100B980086140611861106162130F6007630F50007
:100BA800F50BD42DF60BD42D000083120313061277
:100BB80086120613061086100611861106162130B5
:100BC800F6007630F500F50BE72DF60BE72D000063
:100BD8008312031306120800F501F60183120313AA
:100BE800201CFC2D2208F5070318F60A2308F6072F
:100BF80001300310A20DA30DFF3E031DFD2D013092
:100C08000310A10CA00CFF3E031D042E2008210494
:100C1800031DF22D7608A1007508A00008000C1C21
:100C2800252E0C100130F0007008F8070B308F00EB
:100C3800DC308E000A307806031D252EF801C70126
:100C4800C70A7408FF0073088A0072088400710ECE
:100C58008300FE0E7E0E0900831203130617861208
:100C68000730F6007D30F500F50B382EF60B382EE0
:100C78008312031306160330F500F50B412E831279
:100C8800031306120800831203131008303890006B
:100C9800901010130B308F00DC308E000C108B1767
:100CA8000B17831603130C14831203131014080074
:100CB80083120313A100A001211C662E7508F600FB
:100CC8007608A0070310F50D0310A10C2108031DD9
:100CD800602E2008080083160317880189018316EF
:100CE800031307108711071687128601831203134F
:100CF800860187010800F600F5013A3076020318EC
:100D08008B2E30307602031C8B2EF501F50A750CFC
:100D1800080064008001840A0406031900340406EC
:020D28008E2E0D
:04400E00F2EFFFFFCF
:00000001FF
