:020000040000fa
:080000000002040000000000f2
:020000040000fa
:10000800b6020000b6020000b6020000b602000008
:10001800b6020000b6020000b6020000b6020000f8
:10002800b6020000b6020000b6020000b6020000e8
:10003800b6020000b6020000b6020000b6020000d8
:020000040000fa
:020000040000fa
:100400002f8120000e7f22000e01880000000000d6
:10041000000020000000e000020032000001200087
:10042000200288000c000700e047200001002000a7
:100430001f000700000020000000e0000200320062
:100440000000020000000000520402000000000052
:100450000040da000000fe004440a9000002200035
:100460000000e0000300320000002000a00188002e
:100470004440a80000000600f03fb1000180b10038
:1004800006003500ee03090000000000403fb10007
:100490000180b100fbff3d001000b000203fb00024
:1004a0000200350000800900000000000000060086
:1004b00091018800800078000000eb0015003700f3
:1004c000e280400032a0b4009101ba00e280400016
:1004d00032a0b4009102ba00e280400032a0b40021
:1004e0000002eb00472bde00f507b200602ce100b4
:1004f00004003a000059eb008301e900fdff3e00d3
:10050000040037006128e100010032000082eb00a6
:10051000040007001101ba000200e000e8ff3a0001
:10052000000006003159ba008301e9000c003200d6
:100530002159ba008301e900080032000400e000fc
:1005400003003a00e280400032a0b400f5ff37001b
:1005500011d9ba008301e900faff3a008100e800ee
:10056000e180400032a0b400000006000040da0044
:100570000000fe000002780002003700315a7800c7
:100580000201e900e00f5100fcff3a000000060004
:020000040000fa
:10059000486f00006c610000204d0000756e000087
:1005a000646f00000000000001020000030400006e
:1005b0000506000007080000090a00000b0c0000f7
:1005c0000d0e00000f4800004f4c000041000000dd
:020000040000fa
:1005d0000200fa00004f7800c9e2a800d4a2a900e6
:1005e0009e4278000582fb00d416880000e82300b4
:1005f00001002000a0ff0700d482a8000002200014
:10060000010020009cff0700d482a9000080fa00ae
:10061000000006000000fa000030250071002000f4
:1006200095ff0700c9e2a900d4a2a900dae2a90057
:10063000dac2a900daa2a800da82a800da62a80069
:10064000da42a900da22a900da02a900d482a800bd
:10065000008823001100200087ff0700d482a90032
:10066000008823001100200083ff070000302000d5
:100670000100200080ff0700c9e2a900d4a2a90060
:10068000dae2a900dac2a900daa2a900da82a90096
:10069000da62a800da42a800da22a900da02a90088
:1006a000d482a800008823001100200072ff0700f8
:1006b000d482a90000882300110020006eff0700eb
:1006c00000302000010020006bff0700c9e2a900f4
:1006d000d4a2a900dae2a900dac2a900daa2a9002c
:1006e000da82a900da62a900da42a900da22a900b6
:1006f000da02a800d482a80000882300110020009c
:100700005dff0700d482a9000088230011002000ab
:1007100059ff070000e823000100200056ff0700f2
:10072000c9e2a900d4a2a900dae2a900dac2a900ac
:10073000daa2a900da82a900da62a900da42a800e6
:10074000da22a800da02a900d482a80000882300d7
:100750001100200048ff0700d482a9000088230070
:100760001100200044ff070000e8230001002000e2
:1007700041ff07000080fa00000006000000fa00b8
:10078000d4a2a900c9e2a900dae2a800dac2a8004e
:10079000daa2a900da82a900da62a900da42a90085
:1007a000da22a900da02a900d482a8000088230076
:1007b0001100200030ff0700d482a9000080fa0059
:1007c000000006000000fa00d4a2a900c9e2a900b6
:1007d000dae2a800dac2a900daa2a900da82a90046
:1007e000da62a900da42a900da22a900da02a90035
:1007f000d482a80000882300110020001eff0700fb
:10080000d482a9000080fa00000006000400fa006b
:10081000100798000042eb00044f780007003700f3
:100820001e029000144f78001e40780068ff0700f9
:100830001e0290000402e800140798001e029000b7
:1008400014427800e04f5200f5ff3a000080fa00b1
:10085000000006000400fa00100798000042eb00b8
:10086000044f7800c5ff0700070037001e02900004
:10087000144f78001e40780055ff07001e029000bc
:100880000402e800140798001e0290001442780049
:10089000e04f5200f5ff3a00caff07000080fa005f
:1008a000000006000000fa000002eb004416880079
:1008b0000002eb00d41688000002eb00a4168800aa
:1008c0000002eb00341688000002eb00c41688001a
:1008d0000002eb00941688004eff070014802000f1
:1008e00052002000312e28000400780021ff07006c
:0c08f00010802000c5ff0700ffff37004c
:020000040000fa
:1008fc0000080000120000000000000000000000d2
:020000040000fa
:020000040002f8
:04aff800bd7b00001d
:020000040000fa
:020000040002f8
:04affc007f3f000093
:00000001FF
