:060000000A128A11122809
:10000800FE00030EF1000408F2000A08F300831250
:1000180003137F08F4000A128A11CD2D0A128A11DF
:100028001528F701F80183132030840053300A1291
:100038008A113B2683010A128A11492B8312031362
:10004800EA006030E2006208E60001308312031320
:10005800DF07FF305F0784000A128A1186250A121B
:100068008A11E2006208ED006D0803196C29253039
:100078006D0603194B286D08E2006A0884006208BF
:10008800831380000130E2006208EA072928EB01A7
:10009800EC01E5015F0884000A128A1186250A121C
:1000A8008A110A128A1116260A128A11031CA2281A
:1000B80083120313EB01EC010A3083120313D300FC
:1000C8000030D4006C08D6006B08D5000A128A11DB
:1000D800AA250A128A11831203135408EC00530844
:1000E800EB005F0884000A128A1186250A128A1119
:1000F800D03EE200FF3003180030E3006208EB074F
:100108000318EC0A6308EC070130E2006208DF0715
:100118005F0884000A128A1186250A128A110A12B7
:100128008A1116260A128A11031CA2286028C030D8
:1001380083120313E2006208E504B6280130831233
:100148000313DF07FF305F0784000A128A11862530
:100158000A128A11ED00003A03196C29753A03193D
:100168009B2829286608840083130008E700840A6E
:100178000008E8000230E2006208E607ED01ED0A37
:1001880005306D060319E9286D08E2006207013E93
:1001980084000A128A1186250A128A11E3000A12BB
:1001A8008A1186250A128A11E40064086802031D70
:1001B800DF2863086702031CE9280130E2006208AF
:1001C800ED0705306D06031DC8286D08E200E30140
:1001D800E21BE3036308803AE4006C08803A640297
:1001E800031DF8286B0862020318082983120313F9
:1001F8006D08E200E301E21BE3036208EB02630817
:10020800031CEC03EC020C2983120313EB01EC0131
:100218006B086C04031925292030E2006A08840061
:100228006208831380000130E2006208EA07FF30A9
:10023800EB070318EC0AFF30EC076B086C04031D8E
:1002480010296D08E2006208E900FF30E200620848
:10025800E907690A031929280A30DA000030DB00A7
:100268006908E2006207013E84000A128A118625A5
:100278000A128A11D3000A128A1186250A128A11D3
:10028800D4006808D6006708D5000A128A118524A8
:100298000A128A11831203135408DD005308DC0084
:1002A8000A128A1100250A128A11831203135A08A6
:1002B800303EE3006308ED006D08E2006A08840040
:1002C8006208831380000130E2006208EA072929E6
:1002D800831203136A088400831380010800C33063
:1002E800F600CD30F500F50B7729F60B7729831248
:1002F80003130613861206108610061586150616B1
:100308002130F6007630F500F50B8829F60B8829A0
:1003180000008312031306122130F6007630F50030
:10032800F50B9429F60B9429000083120313061386
:100338008612061086100615861506162130F60058
:100348007630F500F50BA629F60BA62900008312D6
:10035800031306122130F6007630F500F50BB229AA
:10036800F60BB22900008312031306138612061037
:1003780086100615861106162130F6007630F5002F
:10038800F50BC429F60BC4290000831203130612C7
:100398002130F6007630F500F50BD029F60BD02980
:1003A8000000831203130613861206108610061522
:1003B800861106162130F6007630F500F50BE22995
:1003C800F60BE229000083120313061206138612A5
:1003D8000614861406162130F6007630F500F50B63
:1003E800F329F60BF32900008312031306122130B8
:1003F800F6007630F500F50BFF29F60BFF29000013
:10040800831203130613861206108610061186112E
:1004180006162130F6007630F500F50B112AF60B9A
:10042800112A0000831203130612061386120614FB
:1004380086100611861106162130F6007630F50072
:10044800F50B242AF60B242A000083120313061244
:100458002130F6007630F500F50B302AF60B302AFD
:100468000000831203130613861206108610061165
:10047800861106162130F6007630F500F50B422A73
:10048800F60B422A00008312031306120613861283
:10049800061086100611861506162130F6007630ED
:1004A800F500F50B552AF60B552A000083120313A5
:1004B80006122130F6007630F500F50B612AF60BAE
:1004C800612A000083120313061386120610861091
:1004D8000611861106162130F6007630F500F50B68
:1004E800732AF60B732A00008312031306120613ED
:1004F8008612061486140615861106162130F60093
:100508007630F500F50B862AF60B862A0000831252
:100518000313061208008316031394171413941276
:1005280014129411141194101410831203139413B9
:10053800141394161412941514119410141083168D
:10054800031391131113911211129111111191109A
:100558001110313093000A128A114A260A128A11A0
:10056800831603131118B42A9030831203139300CF
:100578000730F6007D30F500F50BC02AF60BC02ACF
:1005880083160313111FC42A013083120313930027
:100598000730F6007D30F500F50BD02AF60BD02A8F
:1005A80083160313111FD42A8312031393010730F0
:1005B800F6007D30F500F50BDF2AF60BDF2A8316EF
:1005C8000313111FE32A91160A128A1143260A12ED
:1005D8008A110730F6007D30F500F50BF12AF60B8D
:1005E800F12A0A128A114A260A128A11831603135B
:1005F8001118FA2A90308312031393000730F6007B
:100608007D30F500F50B062BF60B062B831603132E
:10061800111F0A2B48308312031393000A128A1100
:1006280043260A128A110730F6007D30F500F50BD3
:100638001B2BF60B1B2B0A128A114A260A128A1147
:10064800831603131118242B90308312031393007D
:100658000730F6007D30F500F50B302BF60B302B0C
:1006680083160313111F342B8312031393010A12E9
:100678008A1143260A128A110730F6007D30F500E8
:10068800F50B442BF60B442B08000A128A1124267A
:100698000A128A110A128A1173210A128A110A127D
:1006A8008A118F220A128A110A128A1101260A1245
:1006B8008A110B3083160313A0002008831203133A
:1006C800DF0043300A128A1122200A128A1183128B
:1006D80003133003031D752B0A128A11F6230A121D
:1006E8008A11831203133203031D982BB2011730AA
:1006F80083160313A000200883120313DF003108B8
:1007080083160313A100A201210883120313E0003A
:1007180083160313220883120313E10033300A12ED
:100728008A1122200A128A1143300A128A1141249E
:100738000A128A1133300A128A11A5230A128A1161
:100748005D2B83120313D600D7010A128A115D2587
:100758000A128A11831203135608840083130008AF
:100768000319F22B8312031356088400831300081D
:10077800D4005408D7005708D40004300310D40C10
:10078800FF3E031DC22B5408D5005508D700570853
:100798000A128A11C3240A128A110A128A11EA2536
:1007A8000A128A118312031356088400831300085F
:1007B8000F39D4005408D70057080A128A11C324E5
:1007C8000A128A110A128A11EA250A128A110130BC
:1007D80083120313D4005408D607AE2B0A128A11C9
:1007E8003425080083120313B0010A128A114A261D
:1007F8000A128A11831603131118FE2B91308312E3
:10080800031393008C118C1D072C83160313111FDF
:10081800092C911591190E2C831203131308F50056
:100828007508F7007708F5007508B1008C11831674
:100838000313111691129115831203138C118C1D39
:10084800232C1308F5007508F7007708F500073022
:100858000310F50CFF3E031D2C2C31087507F6001C
:100868007608B1008316031391160A128A114326DB
:1008780083120313B201B20A080083120313D600CD
:10088800D701560884008313000803190800560886
:10089800840083130008D4005408D7005708D400F4
:1008A80004300310D40CFF3E031D552C5408D5000A
:1008B8005508D70057080A128A11C3240A128A1148
:1008C8000A128A11EA250A128A118312031356089A
:1008D8008400831300080F39D4005408D700570840
:1008E8000A128A11C3240A128A110A128A11EA25E5
:1008F8000A128A11013083120313D4005408D60750
:10090800452C83120313D801D90153085404031941
:10091800BE2CD701D70AD41B9D2C01300310D30D50
:10092800D40DFF3E031D922C0130F5007508D70742
:100938008F2C01300310D80DD90DFF3E031D9E2CBE
:1009480054085602031DAA2C53085502031CB32C45
:100958005308D5025408031CD603D6025814013094
:100968000310D40CD30CFF3E031DB42C0130D70266
:10097800031D9D2C5908D4005808D3000800831281
:100988000313D30053080139F500F50DF50DF50DE6
:1009980006087506F739750686005308F500031032
:1009A800750C0139F600F60DF60D06087606FB39CA
:1009B800760686005308F50002300310F50CFF3E5A
:1009C800031DE12C75080139F600F60D06087606B8
:1009D800FD39760686005308F50003300310F50C40
:1009E800FF3E031DF22C01307505F6000608760659
:1009F800FE39760686000800831203135A085B0442
:100A080003192F2DDE01DE0ADB1B162D0130031022
:100A1800DA0DDB0DFF3E031D0B2D0130F6007608C5
:100A2800DE07082D5B085D02031D1C2D5A085C02B9
:100A3800031C242D5A08DC025B08031CDD03DD02BD
:100A480001300310DB0CDA0CFF3E031D252D0130AD
:100A5800DE02031D162D5D08DB005C08DA000800C5
:100A680083120313861206130614861006118611C4
:100A780006162130F6007630F500F50B412DF60B01
:100A8800412D000083120313061286120613061066
:100A980086100611861106162130F6007630F5000C
:100AA800F50B542DF60B542D000083120313061278
:100AB80008008312031386120613061486140611FF
:100AC800861106162130F6007630F500F50B6A2DF2
:100AD800F60B6A2D00008312031306128612061302
:100AE800061086100611861106162130F60076309B
:100AF800F500F50B7D2DF60B7D2D000083120313F9
:100B08000612080005308A000408840A82070034A7
:100B1800013400340A34003464340034E8340334D3
:100B280010342734543445344D3450344534523419
:100B3800413454345534523441340034203425344B
:100B4800333475342034273443340034F501F60146
:100B580083120313531CB62D5508F5070318F60A1C
:100B68005608F60701300310D50DD60DFF3E031DBC
:100B7800B72D01300310D40CD30CFF3E031DBE2D3E
:100B880053085404031DAC2D7608D4007508D3000F
:100B980008000C1CDF2D0C100130F0007008F8075D
:100BA8000B308F00DC308E0005307806031DDF2DFA
:100BB800F801B001B00A7408FF0073088A007208CF
:100BC8008400710E8300FE0E7E0E0900831203134B
:100BD800061786120730F6007D30F500F50BF22D6A
:100BE800F60BF22D8312031306160330F500F50BEE
:100BF800FB2D831203130612080083120313100837
:100C080030389000901010130B308F00DC308E00BD
:100C18000C108B170B17831603130C148312031372
:100C280010140800F600F5013A3076020318222E57
:100C380030307602031C222EF501F50A750C0800E7
:100C4800831603178801890183160313071687156E
:100C58008601831203138601870108008316031394
:100C680011081F39031D322E141D0800322E64008E
:100C78008001840A04060319003404063C2E0A1273
:100C88008A113226831603131115080083160313DD
:040C9800111408002B
:04400E00F2EFFFFFCF
:00000001FF
