:060000000A128A11122809
:10000800FE00030EF0000408F1000A08F200831253
:1000180003137F08F3000A128A112A2D0A128A1183
:100028001528F701F801F90183120313EB01EC011C
:10003800ED01EE0183160313A001A101A201A301A2
:10004800A401A501A601A701A801A901AA0183018C
:100058000A128A112F280A128A11DC250A128A111B
:100068000A128A11C7250A128A1183160313230359
:100078002404031D9429A301A401831203131E0859
:10008800E900EA016908EB006A08EC006B08EA007D
:10009800E9016908EB006A08EC00831603131E08DF
:1000A800831203136B07E9006C0803186C0AEA0053
:1000B8006908EB006A08EC002830CB00A030CC00BF
:1000C8003B30CD006C08A6006B08A5000A128A1107
:1000D800AF250A128A11831203132508CE002608B9
:1000E800CF002708D0000A128A11A3220A128A1107
:1000F800831203134B08F7004C08F8004D08F90069
:100108007708DB007808DC007908DD000A128A111C
:100118002E240A128A11831203135C08EE005B086E
:10012800ED006E08A6006D08A5000A128A118A253E
:100138000A128A11831203132508BB002608BC0083
:100148002708BD000A128A11F0250A128A118312A3
:1001580003133B08C1003C08C2003D08C3007708F0
:10016800BE007808BF007908C0000A128A119A21D7
:100178000A128A11831203133E08CE003F08CF00EB
:100188004008D0000030CB002030CC004130CD00FA
:100198000A128A11A3220A128A11831203134B0826
:1001A800DB004C08DC004D08DD000A128A112E2401
:1001B8000A128A11831203135C0883160313AA0018
:1001C800831203135B0883160313A9008312031316
:1001D8006E08A6006D08A5000A128A118A250A125F
:1001E8008A11831203132508C1002608C2002708B4
:1001F800C300831603132A0883120313A600831669
:100208000313290883120313A5000A128A118A25E9
:100218000A128A11831203132508AE002608AF00BC
:100228002708B0000030AB002030AC004130AD00F2
:100238000A128A1176230A128A11831203132B08D1
:10024800BE002C08BF002D08C0000A128A119A218E
:100258000A128A11831203133E08BB003F08BC0030
:100268004008BD000A128A11F0250A128A11831269
:1002780003133B0883160313AB00831203133C08D4
:1002880083160313AC00831203133D08831603136C
:10029800AD002B0883120313C100831603132C0827
:1002A80083120313C200831603132D08831203134A
:1002B800C3007708BE007808BF007908C0000A129A
:1002C8008A119A210A128A11831203133E08CE005A
:1002D8003F08CF004008D0000030CB00C830CC0029
:1002E8004230CD000A128A11A3220A128A118312FF
:1002F80003134B08DB004C08DC004D08DD000A1234
:100308008A112E240A128A11831203135C08831699
:100318000313A800831203135B0883160313A700B3
:100328000A128A115B250A128A11392883120313CB
:100338003E08C4003F08C5004008C6000310450D2C
:10034800460DC7004708CA004108C4004208C50056
:100358004308C6000310450D460DC7004708C900ED
:100368004A080319C32949084A020318CA294A0333
:10037800FF3A4907C40019304402031CCA2941083E
:10038800BE004208BF004308C0000800490803191E
:1003980008004A0849020318D9294903FF3A4A07BD
:1003A800C40019304402031808000630C400440889
:1003B800C800C01BC817C31B4817BF17FF30BE05AE
:1003C800FF30BF050030C005C217FF30C105FF3040
:1003D800C2050030C30549084A020318192A01302A
:1003E8000310C10DC20DC30DFF3E031DF4290130DA
:1003F800C90249084A060319142A0130C8024808E4
:1004080007390319142AF32901300310C00CBF0C53
:10041800BE0CFF3E031D092A0130C4004408CA0768
:100428004A0849060319422A082A4A0849020318B1
:10043800422A01300310BE0DBF0DC00DFF3E031D43
:100448001E2A0130CA0249084A0603193E2A013009
:10045800C8024808073903193E2A1D2A013003102B
:10046800C30CC20CC10CFF3E031D332A0130C4006B
:100478004408C9074A084906031D322AC81F542AD6
:10048800FF30BE06FF30BF06FF30C0060130BE0792
:10049800003003180130BF07003003180130C007CF
:1004A800481F662AFF30C106FF30C206FF30C30668
:1004B8000130C107003003180130C20700300318AB
:1004C8000130C307C8013E08C1073F0803110318DC
:1004D8003F0A031DC207400803110318400A031D01
:1004E800C307C31F892AFF30C106FF30C206FF3089
:1004F800C3060130C107003003180130C2070030BD
:1005080003180130C307C801C80A4108A0004208FF
:10051800A1004308A2004A08C4004408A3004808F0
:10052800C5004508A4000A128A11BC2483120313CB
:100538002008BE002108BF002208C000080083125E
:1005480003134B08D1004C08D2004D08D300031008
:10055800520D530DD4005408D5005508031DBB2A6D
:100568000030CB000030CC000030CD0008004E0831
:10057800D1004F08D2005008D3000310520D530D7C
:10058800D4005408DA005A08031DD12A0030CB00E1
:100598000030CC000030CD0008005A087B3ED10066
:1005A8005108D5074B08D1004C08D2004D08D3009C
:1005B80010300310D30CD20CD10CFF3E031DDD2AE2
:1005C8005108D4005408DA004E08D1004F08D20070
:1005D8005008D30010300310D30CD20CD10CFF3EBE
:1005E800031DEF2A5108D4005408DA068030D100E0
:1005F8005108DA05CC17CF17FF30CE05FF30CF05ED
:100608000030D0050030D6000030D7000030D800C8
:100618000730D1005108D9004B1C202B4E08D607B3
:100628004F08031103184F0A031DD7075008031179
:100638000318500A031DD80701300310CD0CCC0C49
:10064800CB0CFF3E031D212B01300310CE0DCF0D27
:10065800D00DFF3E031D292B0130D902031D102B9D
:100668000930D1005108D9004B1C482B4E08D60739
:100678004F08031103184F0A031DD7075008031129
:100688000318500A031DD80701300310CD0CCC0CF9
:10069800CB0CFF3E031D492B01300310D80CD70C9F
:1006A800D60CFF3E031D512B0130D902031D382BF8
:1006B8005608A0005708A1005808A2005508D10004
:1006C8005108A3005A08D2005208A4000A128A113D
:1006D800BC24831203132008CB002108CC00220875
:1006E800CD000800831203132E08B1002F08B200B2
:1006F8003008B3000310320D330DB4003408B900CC
:100708003908031D8E2B0030AB000030AC000030E0
:10071800AD0008002B08B1002C08B2002D08B3006A
:100728000310320D330DB4003408BA003A08031D23
:10073800A42B0030AB000030AC000030AD00080046
:100748000030B6000030B7000030B80089303A07F2
:10075800B1003108B9022E08B1002F08B2003008E4
:10076800B30010300310B30CB20CB10CFF3E031DE4
:10077800B62B3108B4003408BA002B08B1002C0895
:10078800B2002D08B30010300310B30CB20CB10C3A
:10079800FF3E031DC82B3108B4003408BA06803068
:1007A800B1003108BA05AF17FF30AE05FF30AF050D
:1007B8000030B005AC17FF30AB05FF30AC0500309A
:1007C800AD051830B1003108B50001300310B60D81
:1007D800B70DB80DFF3E031DEA2B2D083002031D8F
:1007E800FB2B2C082F02031DFB2B2B082E02031CAE
:1007F800082C2B08AE022C08031C2C0FAF022D0866
:10080800031C2D0AB002361401300310AE0DAF0DD3
:10081800B00DFF3E031D092C0130B502031DE92B65
:100828003608A0003708A1003808A2003908B1002E
:100838003108A3003A08B2003208A4000A128A114B
:10084800BC24831203132008AB002108AC00220843
:10085800AD000800831203135B08DF005C08E000AA
:100868005D08E1000310600D610DE2006208E80018
:100878006808031D482C0030DE000030DD00003021
:10088800DC000030DB0008005B08DF005C08E000EB
:100898005D08E10017300310E10CE00CDF0CFF3EAF
:1008A800031D4F2C5F08E2006208E300DC17FF30ED
:1008B800DB05FF30DC050030DD055B08E4005C0883
:1008C800E5005D08E600E7018E30E802E81F8A2CA3
:1008D8006808803A8F3E03187A2C0030DE0000301A
:1008E800DD000030DC000030DB00080001300310C0
:1008F800E70CE60CE50CE40CFF3E031D7B2C0130F5
:10090800DF005F08E8070319A52C7A2C1830680265
:10091800031CA22C0030DE000030DD000030DC00BB
:100928000030DB0008000130DF000310E40DE50DA6
:10093800E60DE70DDF0B992C0130E8026808031D6E
:10094800972C63080319B32CE409E509E609E709BC
:10095800E40A0319E50A0319E60A0319E70A67080E
:10096800DE006608DD006508DC006408DB000800BE
:100978008312031323080319C62C22082104200418
:10098800031DD92C0030A0000030A1000030A200C7
:1009980008000130F4007408A30701300310A20C0A
:1009A800A10CA00CFF3E031DD22CFE30220503191A
:1009B800F42CCD2C0130F4007408A3070130A007F3
:1009C800003003180130A107003003180130A207D6
:1009D80001300310A20CA10CA00CFF3E031DED2C4E
:1009E800FF3022050319032DDE2C0130A30201304C
:1009F8000310A00DA10DA20DFF3E031DFC2CA11B91
:100A0800092D023023020318F92C2318112DFF3069
:100A1800A0057F30A105FF30A2050310A30C230811
:100A2800F400F501F60110300310F40DF50DF60D84
:100A3800FF3E031D182D7408A0047508A10476084C
:100A4800A204240803190800A21708000C1C4F2D43
:100A58000C10013083160313A5070318A60A0030EB
:100A6800A6070B30831203138F00DC308E0005308D
:100A78008316031325062604031D4F2DA501A60181
:100A8800831203139F149F18472D013083160313F5
:100A9800A3000030A40073088312FF0072088A00C4
:100AA80071088400700E8300FE0E7E0E0900831606
:100AB8000313270840388312031387000D30F5000D
:100AC800FB30F400F40B662DF50B662D6B2D8316A9
:100AD8000313290820388312031387000D30F5000B
:100AE800FB30F400F40B762DF50B762D7B2D83125D
:100AF80003136D08103887000D30F500FB30F40043
:100B0800F40B842DF50B842D892D08008312031313
:100B1800AA01A61F962DA509A609A50A0319A60AC2
:100B2800AA01AA0A2508A0002608A100A2018E3061
:100B3800A8002808A3002A08A9002908A4000A1266
:100B48008A11BC24831203132008A5002108A600DB
:100B58002208A7000800831203132508A00026080E
:100B6800A100A2018E30A8002808A300A4010A123F
:100B78008A11BC24831203132008A5002108A600AB
:100B88002208A700080083120313100830389000C9
:100B9800901010130B308F00DC308E000C108B1768
:100BA8000B17831603130C14831203131014080075
:100BB8000230831603178800890102308316031355
:100BC800850087011F129F129F178130831203131C
:100BD8009F00850187010800831203133D083C0428
:0C0BE8003B04031908008030BD06080023
:04400E00F2EFFFFFCF
:00000001FF
