:020000040000fa
:080000000002040000000000f2
:020000040000fa
:04000800e202000010
:020000040000fa
:04000c00e20200000c
:020000040000fa
:04001000e202000008
:020000040000fa
:04001400e202000004
:020000040000fa
:04001800e202000000
:020000040000fa
:04001c00e2020000fc
:020000040000fa
:04002000e2020000f8
:020000040000fa
:04002400e2020000f4
:020000040000fa
:04002800e2020000f0
:020000040000fa
:04002c00e2020000ec
:020000040000fa
:04003000e2020000e8
:020000040000fa
:04003400e2020000e4
:020000040000fa
:04003800e2020000e0
:020000040000fa
:04003c00e2020000dc
:020000040000fa
:04004000e2020000d8
:020000040000fa
:04004400e2020000d4
:020000040000fa
:04004800e2020000d0
:020000040000fa
:04004c00e2020000cc
:020000040000fa
:04005000e2020000c8
:020000040000fa
:04005400e2020000c4
:020000040000fa
:04005800e2020000c0
:020000040000fa
:04005c00e2020000bc
:020000040000fa
:04006000e2020000b8
:020000040000fa
:04006400e2020000b4
:020000040000fa
:04006800e2020000b0
:020000040000fa
:04006c00e2020000ac
:020000040000fa
:04007000e2020000a8
:020000040000fa
:04007400e2020000a4
:020000040000fa
:04007800e2020000a0
:020000040000fa
:04007c00e20200009c
:020000040000fa
:04008000e202000098
:020000040000fa
:04008400e202000094
:020000040000fa
:04008800e202000090
:020000040000fa
:04008c00e20200008c
:020000040000fa
:04009000e202000088
:020000040000fa
:04009400e202000084
:020000040000fa
:04009800e202000080
:020000040000fa
:04009c00e20200007c
:020000040000fa
:0400a000cc0200008e
:020000040000fa
:0400a400e202000074
:020000040000fa
:0400a800e202000070
:020000040000fa
:0400ac00e20200006c
:020000040000fa
:0400b000e202000068
:020000040000fa
:0400b400e202000064
:020000040000fa
:0400b800e202000060
:020000040000fa
:0400bc00e20200005c
:020000040000fa
:0400c000e202000058
:020000040000fa
:0400c400e202000054
:020000040000fa
:0400c800e202000050
:020000040000fa
:0400cc00e20200004c
:020000040000fa
:0400d000e202000048
:020000040000fa
:0400d400e202000044
:020000040000fa
:0400d800e202000040
:020000040000fa
:0400dc00e20200003c
:020000040000fa
:0400e000e202000038
:020000040000fa
:0400e400e202000034
:020000040000fa
:0400e800e202000030
:020000040000fa
:0400ec00e20200002c
:020000040000fa
:0400f000e202000028
:020000040000fa
:0400f400e202000024
:020000040000fa
:0400f800e202000020
:020000040000fa
:0400fc00e20200001c
:020000040000fa
:04010000e202000017
:020000040000fa
:04010400e202000013
:020000040000fa
:04010800e20200000f
:020000040000fa
:04010c00e20200000b
:020000040000fa
:04011000e202000007
:020000040000fa
:04011400e202000003
:020000040000fa
:04011800e2020000ff
:020000040000fa
:04011c00e2020000fb
:020000040000fa
:04012000e2020000f7
:020000040000fa
:04012400e2020000f3
:020000040000fa
:04012800e2020000ef
:020000040000fa
:04012c00e2020000eb
:020000040000fa
:04013000e2020000e7
:020000040000fa
:04013400e2020000e3
:020000040000fa
:04020800e20200000e
:020000040000fa
:04020c00e20200000a
:020000040000fa
:04021000e202000006
:020000040000fa
:04021400e202000002
:020000040000fa
:04021800e2020000fe
:020000040000fa
:04021c00e2020000fa
:020000040000fa
:04022000e2020000f6
:020000040000fa
:04022400e2020000f2
:020000040000fa
:04022800e2020000ee
:020000040000fa
:04022c00e2020000ea
:020000040000fa
:04023000e2020000e6
:020000040000fa
:04023400e2020000e2
:020000040000fa
:04023800e2020000de
:020000040000fa
:04023c00e2020000da
:020000040000fa
:04024000e2020000d6
:020000040000fa
:04024400e2020000d2
:020000040000fa
:04024800e2020000ce
:020000040000fa
:04024c00e2020000ca
:020000040000fa
:04025000e2020000c6
:020000040000fa
:04025400e2020000c2
:020000040000fa
:04025800e2020000be
:020000040000fa
:04025c00e2020000ba
:020000040000fa
:04026000e2020000b6
:020000040000fa
:04026400e2020000b2
:020000040000fa
:04026800e2020000ae
:020000040000fa
:04026c00e2020000aa
:020000040000fa
:04027000e2020000a6
:020000040000fa
:04027400e2020000a2
:020000040000fa
:04027800e20200009e
:020000040000fa
:04027c00e20200009a
:020000040000fa
:04028000e202000096
:020000040000fa
:04028400e202000092
:020000040000fa
:04028800e20200008e
:020000040000fa
:04028c00e20200008a
:020000040000fa
:04029000e202000086
:020000040000fa
:04029400e202000082
:020000040000fa
:04029800e20200007e
:020000040000fa
:04029c00e20200007a
:020000040000fa
:0402a000e202000076
:020000040000fa
:0402a400e202000072
:020000040000fa
:0402a800e20200006e
:020000040000fa
:0402ac00e20200006a
:020000040000fa
:0402b000e202000066
:020000040000fa
:0402b400e202000062
:020000040000fa
:0402b800e20200005e
:020000040000fa
:0402bc00e20200005a
:020000040000fa
:0402c000e202000056
:020000040000fa
:0402c400e202000052
:020000040000fa
:0402c800e20200004e
:020000040000fa
:0402cc00e20200004a
:020000040000fa
:0402d000e202000046
:020000040000fa
:0402d400e202000042
:020000040000fa
:0402d800e20200003e
:020000040000fa
:0402dc00e20200003a
:020000040000fa
:0402e000e202000036
:020000040000fa
:0402e400e202000032
:020000040000fa
:0402e800e20200002e
:020000040000fa
:0402ec00e20200002a
:020000040000fa
:0402f000e202000026
:020000040000fa
:0402f400e202000022
:020000040000fa
:0402f800e20200001e
:020000040000fa
:0402fc00e20200001a
:020000040000fa
:04030000e202000015
:020000040000fa
:04030400e202000011
:020000040000fa
:04030800e20200000d
:020000040000fa
:04030c00e202000009
:020000040000fa
:04031000e202000005
:020000040000fa
:04031400e202000001
:020000040000fa
:04031800e2020000fd
:020000040000fa
:04031c00e2020000f9
:020000040000fa
:04032000e2020000f5
:020000040000fa
:04032400e2020000f1
:020000040000fa
:04032800e2020000ed
:020000040000fa
:04032c00e2020000e9
:020000040000fa
:04033000e2020000e5
:020000040000fa
:04033400e2020000e1
:020000040000fa
:100400002f8520000e7f22000e01880000000000d2
:10041000000020000000e000020032000001200087
:100420002002880014000700680007000000e000b8
:1004300003003a00a0502000010020000200370015
:100440000000200001002000810f70000100320038
:1004500014000700000020000000e000020032004d
:10046000000002000000000076040200000000000e
:100470000040da000000fe004440a900e001200036
:100480000000e0000300320000002000a00188000e
:100490004440a800000006008a1f78008b1f7800e7
:1004a0000000060091018800800478000000eb0045
:1004b0001a003700e284440032a0b4009905ba0063
:1004c000e284440032a0b4009906ba00e2844400f9
:1004d00032a0b4000006eb00476fde00fd07b2005b
:1004e000636ce10003003a00ebff07000000eb0043
:1004f0000a003700606ce10004003a00005deb0088
:100500008b05e900fdff3e00040037006168e10053
:10051000010032000086eb000b00070019c7ba008b
:100520001905ba000e04e00003003a000a00e000da
:10053000e0ff3a0000000600fe07b2009e018800be
:100540008a047800f5ff3700395dba008b05e900b1
:100550000c003200295dba008b05e900080032006a
:100560000c00e00003003a00e284440032a0b40032
:10057000f5ff370019ddba008b05e900faff3a00f4
:100580008904e800e184440032a0b40000000600c1
:100590005604040000000000801f78000000fa00ec
:1005a00000c8bf00e14f500003003a000068ef00b0
:1005b00010c0b30001e8b7000080fa004f007800d7
:1005c000004006000040da000000fe0000000500c8
:1005d0008001780002003700b15978000201e9007b
:0c05e0000200e000fcff3a0000000600f2
:020000040000fa
:1005ec0042690000656e0000766500006e690000cf
:1005fc00646f000020610000616100006161000017
:10060c0000650000787000006c6f000072650000df
:0c061c00722000003136000000000000d9
:020000040000fa
:100628000200fa00004f7800c9e2a800d4a2a9008d
:100638001e80fb00d016880000e82300010020007f
:10064800e4000700d482a80000d0270001002000a1
:10065800e0000700d482a9000080fa00000006002c
:100668000000fa0000d0270001002000d900070090
:10067800d4a2a900c9e2a900dae2a800dac2a80057
:10068800daa2a900da82a900da62a900da42a9008e
:10069800da22a900da02a900d482a800008823007f
:1006a80011002000cb000700d482a9000080fa00c6
:1006b800000006000000fa0000d02700010020001a
:1006c800c4000700d4a2a900c9e2a900dae2a80080
:1006d800dac2a900daa2a900da82a900da62a900be
:1006e800da42a900da22a900da02a900d482a80015
:1006f8000088230011002000b6000700d482a9005a
:100708000080fa00000006000400fa0010079800b4
:100718000040eb00004f7800070037001e009000f3
:10072800104f78001e407800bdff07001e009000a3
:100738000000e800100798001e00900010407800a4
:100748000004e000f5ff3a000080fa00000006000f
:100758000400fa00100798000040eb00004f7800f2
:1007680061452000000c20000100010061452000c7
:10077800000c20000100010000d02700010020002b
:1007880094000700070037001e009000104f780003
:100798001e407800a2ff07001e0090000000e8003d
:1007a800100798001e009000104078000004e00038
:1007b800f5ff3a0061452000000820000100010013
:1007c8006145200000082000010001000080fa00b7
:1007d800000006000000fa0000d0270001002000f9
:1007e8007c000700c9e2a900d4a2a90010002000db
:1007f800d016880000e823000100200075000700db
:10080800d482a80000022000010020007100070027
:10081800d482a9000080fa00000006000200fa0055
:100828000000eb00000f78000d00370000032000e7
:10083800d0168800c9e2a900d4a2a900d482a800d1
:10084800000120000100200062000700d482a900f6
:1008580000202100a10720005e0007001e0fe8000d
:100868001e007800e20f5000f0ff360061452000be
:10087800c00320000100010061452000c0002000e5
:100888000100010061452000100020000100010066
:100898006145200060002000010001000080fa008e
:1008a800000006000200fa00004f78001e00fb005e
:1008b800d0168800c9e2a900d4a2a900d482a80051
:1008c800000120000100200042000700d482a90096
:1008d80000102700210020003e0007000080fa00d9
:1008e800000006000000fa00da22ef00d422ef0030
:1008f800c822ef00c9ff070000202e004100200099
:1009080034000700b3ff07002080200012012000f8
:10091800612f28002cff0700a0822000c2002000c1
:100928007130280028ff07002080200076ff07008c
:10093800a082200086ff0700ffff37000000fa00b2
:100948002c23ef0080202200001988002223ef00ca
:100958002423ef002823ef003023ef0085a0a9000f
:1009680095a0a80021e3a8002023a80000012000ea
:1009780001002000170007002023a9000080fa00ca
:10098800000006000400fa000000eb00000f7800e9
:10099800003020001007980085a0a9002043a80077
:1009a800000000002003a900001980000040780022
:1009b800614060000004e000faff3a002043a9000b
:1009c8001e0090004680de00000f78000080fa00cc
:0409d8000000060015
:020000040000fa
:1009dc00f03fb1000180b10006003500ee030900c4
:1009ec0000000000403fb1000180b100fbff3d0062
:1009fc001000b000203fb00002003500008009005c
:080a0c000000000000000600dc
:020000040000fa
:100a14000208000050000000000000000008000070
:0c0a2400020000000000000000000000c4
:020000040000fa
:020000040002f8
:04aff800bd7b00001d
:020000040000fa
:020000040002f8
:04affc007f3f000093
:00000001FF
