:020000040000fa
:080000000002040000000000f2
:020000040000fa
:10000800b6020000b6020000b6020000b602000008
:10001800b6020000b6020000b6020000b6020000f8
:10002800b6020000b6020000b6020000b6020000e8
:10003800b6020000b6020000b6020000b6020000d8
:020000040000fa
:020000040000fa
:100400000f9620000e7f22000e01880000000000e1
:10041000000020000000e000020032000001200087
:10042000200288000c00070060e12100010020008c
:100430001f000700000020000000e0000200320062
:100440000000020000000000aa10020000000000ee
:100450000040da000000fe004440a900000f200028
:100460000000e0000300320000002000a00188002e
:100470004440a80000000600f03fb1000180b10038
:1004800006003500ee03090000000000403fb10007
:100490000180b100fbff3d001000b000203fb00024
:1004a0000200350000800900000000000000060086
:1004b00091018800800078000000eb0015003700f3
:1004c000e280400032a0b4009101ba00e280400016
:1004d00032a0b4009102ba00e280400032a0b40021
:1004e0000002eb00472bde00f507b200602ce100b4
:1004f00004003a000059eb008301e900fdff3e00d3
:10050000040037006128e100010032000082eb00a6
:10051000040007001101ba000200e000e8ff3a0001
:10052000000006003159ba008301e9000c003200d6
:100530002159ba008301e900080032000400e000fc
:1005400003003a00e280400032a0b400f5ff37001b
:1005500011d9ba008301e900faff3a008100e800ee
:10056000e180400032a0b400000006000040da0044
:100570000000fe0000c0da00000006000a00fa00d9
:10058000e20f500022003e00f44a8000e10f5200ca
:100590000600320087232000462320002423200069
:1005a00005232000e08f530004003a00872220003a
:1005b00046222000242220000522200000002800de
:1005c0001500600003003a00800b78000700280047
:1005d000958a7300054020009482620001003a0071
:1005e00014a0a0008202780006003700940378006f
:1005f0000710b200fdff3200b103fb00070b7800cb
:100600008502e900e08f5200f8ff3a000800370049
:1006100034002000c0bf9f00e2bf9f00b4bf9f0016
:10062000d1bf9f006a805700d2ff07006fb99700c3
:10063000020078000080fa0000000600889fbe00db
:100640008a9fbe003004be002005be0004044400a2
:1006500085844c0006054d0087854d000898be0036
:100660000a90be000440e10005c8e10006d0e100a8
:1006700007d8e10002003100680040001008e800df
:100680004f05be004f04be00000006001000fa0037
:10069000889fbe008a9fbe00110020000605be0094
:1006a0000404be003002be002003be00c4b79f0099
:1006b000d5b79f00e6b79f00f7b79f00080252002a
:1006c00089825a000a035b008b835b0084bf9f0012
:1006d00095bf9f00a6bf9f00b7bf9f000498be00b4
:1006e0000698be004fb29700dfb297006fb3970035
:1006f000ffb39700b0000700010039008000eb0055
:100700004f05be00108810004f04be000080fa00a4
:10071000000006001400fa00889fbe008a9fbe00f9
:100720008c9fbe000006eb0079000700ccb79f004d
:10073000bcb79f00acb79f009cb79f008cb79f00d1
:100740000605be000404be000d0420004fb3970050
:10075000bfb29700860343002fb29700e00f53000b
:1007600004003d00990007000f004000b3ff0700a0
:1007700003003700950007000f004000c3ff07008b
:10078000cfb2970095bf9f00e08f5200090035005f
:100790006600070014002000050020006033b80048
:1007a0000000720081807200020173008381730077
:1007b000570007000c06e8008d0f5600e3ff3a00d3
:1007c0001fba9700e00f520005003d000802be006e
:1007d0000a03be0000fe2f000f00400097ff070035
:1007e0004faa9700e00f520008003a000fb497009c
:1007f0009fb497002fb59700bfb59700d8b79f005b
:10080000e9b79f00fab79f008bbf9f004700070022
:100810004f06be004f05be004f04be000080fa0028
:1008200000000600881f780018002000881f78004c
:10083000b8ff07008f87e9004f047800000006002a
:10084000801feb00b3ff07008f87e9000000060060
:10085000889fbe008a9fbe004100070008003d003f
:100860007a00070043000700180020004600070038
:1008700008003d002f0007000004eb0005003700d2
:100880000004eb004000070002003d0029000700c3
:1008900018002000e3ff0700e00f540001003200c1
:1008a0003e0007004f05be004f04be0000000600da
:1008b000889fbe008a9fbe008c1f7800280007001a
:1008c00006003d00610007001c0020002900070011
:1008d0003900070006003d00040037000006eb0069
:1008e0002900070002003d00580007001200070021
:1008f000d3ff0700e00f5600010032002700070079
:100900004f0678004f05be004f04be0000000600f1
:10091000010007000000060090b79f00a1b79f00ec
:10092000b2b79f00c3b79f00000006000700070092
:1009300000000600450007000402540085825c00a8
:1009400006035d0087835d00000006001fb097006e
:10095000afb097003fb19700cfb1970000000600fd
:10096000e00f5000e08f5800e00f5900e08f590071
:10097000000006000000540081805c0002015d0060
:1009800083815d0000000600e00f5200e08f5a00f6
:10099000e00f5b00e08f5b00000006006022b80003
:1009a0006033b8000000520081805a0002015b00f1
:1009b00083815b00000006000820e10009a8e10037
:1009c0000ab0e1000bb8e100000006004f2bde008a
:1009d000deff070086837300858242004f23de001e
:1009e000a7b79f00868272000402420095b79f005d
:1009f000ffaa97004f2bde0085824200060272009c
:100a000084b79f006faa97004f23de0004024200c4
:100a100086827200f5af9f004f18de000002720060
:100a2000caff0700e4af9f0000004000818048003b
:100a300002014900838149000802be000a03be008a
:100a4000b5ff070000fe2f00000006006044b8005c
:100a50006055b80000000600889fbe008a9fbe0057
:100a60008c1f78000006eb00e00f5000e08f58006c
:100a7000e00f5900e08f590007003d006044b800c6
:100a80006055b8001c0020000000540081805c000c
:100a900002015d0083815d00e00f5200e08f5a008b
:100aa000e00f5b00e08f5b0007003d006044b80092
:100ab0006055b8000c00a2000402540085825c005e
:100ac00006035d0087835d0022000700e00f5600eb
:100ad000060032006022b8006033b8000000520007
:100ae00081805a0002015b0083815b004f06780021
:100af0004f05be004f04be00000006006022b80093
:100b0000060220000000d0008180d2000482d200c2
:100b10008582d2000000a0000202520083825a00a7
:100b2000030031000202420083824a000000a1005b
:100b30000603e900f3ff3a0000000600020ab900cc
:100b4000001bb9000200b800810042008100430090
:100b500000000600889fbe008a9fbe008c9fbe00da
:100b60000404b8000506b8008904460060854e00fc
:100b70000606b8000a054600e0854e000706b800e4
:100b80008b054600040eb800890446000a854e0015
:100b9000e0854d00050eb8000a0546008b854e0025
:100ba000060eb8008b0546000416b8000a0546007c
:100bb0008b854e000516b8008b054600041eb80054
:100bc0008b0546000800be000a01be004f06be00ad
:100bd0004f05be004f04be00000006000002780072
:100be00002003700315a78000201e900e00f51009d
:100bf000fcff3a00000006000c00fa00889fbe00cf
:100c0000f4ff270000047800d4bf9f008004eb00ad
:100c100088bf9f0099bf9f00a8bf9f00240c2000a1
:100c200078815700b4bf9f00cfb097007080570005
:100c3000070007000fba9700094a78000fba97001b
:100c4000080052004f04be000080fa0000000600b9
:100c5000ef03b000889fbe008a9fbe008c9fbe003d
:100c6000800678008e1f78000007eb00d1af9f0050
:100c7000a2b79f0066033700dfa8970054c2b300f5
:100c80008100e800d1af9f00844f500006003a0079
:100c9000010278000006eb0001c3b30000c2b300fc
:100ca000b7c2b3000e0037003d0290000404b2004a
:100cb000040032001d027800004a7800840ee8002b
:100cc000050037000000fb008d0078005c03070082
:100cd000e10f40004e0332000e07e8004c033700de
:100ce00084027800d2c2b30034437800824f5300ac
:100cf0000900320005003c00804f5300080032001c
:100d0000874f53000c003a0007003700814f530013
:100d100009003a00060037000c30a000f0ff370051
:100d20000c00a000eeff37000c10a000ecff370015
:100d30000c20a000eaff37006202660001003200ca
:100d40000c00a10068026600010032000c20a10026
:100d50000602fb000403b100e90f52000c003e0044
:100d6000050378000002eb00b603fb006a22b9001d
:100d70000703b10086027800048243009603fb005b
:100d80000703b100e98f5300f7ff36000800370072
:100d90000002eb00a7c2b300874f530004003a00e3
:100da000afb197008502e80043027800a3b79f0027
:100db0000003eb0096b79f00e6c2b300954f130007
:100dc0000c003a000ce0a00064435300d54f130020
:100dd00003003200050378000000eb000900370033
:100de000afb397008502e80047047800a7b79f00db
:100df00098b79f0005037800090037006a00b90022
:100e00000080430086027800b603fb000703b100b0
:100e1000e98f5300f9ff360090b79f00f5ff3700c8
:100e2000b6427800cac6b300d6af9f008acf520040
:100e3000250032000f003c0036c6b30086cf5200ba
:100e40009e00320004003c00e0cf5200f502320068
:100e50006b4353000f00370046c6b30086cf5200e5
:100e6000170032006543430086cf5200b2003a00bb
:100e70001300370036c7b30086cf52001f00320080
:100e800007003c006443530086cf52001400320038
:100e90000643e80086cf5200a7003a00130037004f
:100ea00056c7b30086cf5200aa0032006343430006
:100eb00086cf5200a0003a00e5779f000d00370072
:100ec000e5779f00a5003700f003660005012000cc
:100ed00001003200050028000c867200d0ff3700a8
:100ee000e5779f000c60a0009c003700e5779f002d
:100ef0000c50a0000c70a00098003700afb5970010
:100f0000e5779f00cb027800abb79f00b5b79f0095
:100f1000e08f520002003a00a1922000b1b79f007a
:100f20003fb397008002eb00010037008502e80024
:100f3000e6c37a00e0cf5300fcff3a00c5b79f003c
:100f40001fb19700e00f510005003200cfb19700ac
:100f5000830f51000200310082027800c5b79f0064
:100f6000cfb297000004eb00850f5200010036005d
:100f7000050452006806660009c2b3000f00320083
:100f8000290037003d0290000404b2000400320042
:100f90001d027800094a7800840ee8000500370039
:100fa0008d00780000022000a5020700e10f40003c
:100fb000010032000e07e8000804e900e00f5400c9
:100fc000f0ff3a000084eb0017003700bd029000ec
:100fd0000504b20009003200880278009d03780001
:100fe00035437800864b780005047800870ee800ca
:100ff000e04f53000a003a001100370088027800e1
:101000008d0078003500fb0084bf9f000504780048
:101010008b0207000fba9700e10f40000800320072
:101020000e07e800060037000c027800080678007a
:101030003fb49700cfb497005fb59700efb5970026
:10104000890278008504e900e08f5200dfff3a0052
:10105000b8b79f00c9b79f00dab79f00ebb79f00f2
:101060000c04780009c2b30004067800e00f5600b3
:101070000f003a00660237003d0290000404b200ff
:10108000040032001d027800094a7800840ee8004e
:10109000050037008d00780000022000680207007c
:1010a000e10f4000010032000e07e8000804e900eb
:1010b000e00f5400f0ff3a0055023700afb0970040
:1010c0007003660041047800a1b79f00cfc4de0022
:1010d000090578008a0578000800be000a01be00f4
:1010e0004800de00c80add0000807200e0779f0043
:1010f000e00f530009003200e04f500007003200bb
:10110000e14f40000500320026002000f0779f00ec
:10111000887f9f00c6b79f0003003700170020009c
:10112000c7b79f00f8779f0078fb2f00088447001f
:10113000b8b79f0082ff370069fb2f001a0020001c
:1011400089844700e5779f00b9b79f00cab79f0021
:101150007bff3700e5779f000c0cb3008c02780012
:10116000050cb2003b003a00e00f560005003d00c0
:10117000afb297004501be004500be00a5b79f0075
:101180000f003700f0026600120032002fb4970003
:101190004803be00f69f9f0087a79f00a8b79f0047
:1011a00098029000cfaade0095a79f00a5a79f00f8
:1011b0007f9897008fa097001fa19700afa197007d
:1011c000b0b79f00c1b79f00d2b79f00e3b79f00a1
:1011d0000b003700afb09700c1027800050478001b
:1011e000cfc4de00090578008a057800a1b79f000a
:1011f000b8b79f00c9b79f00dab79f00ebb79f0051
:101200003fb09700cfb097005fb19700efb1970064
:10121000e00f5000e08f5800e00f5900e08f5900b8
:1012200032003d006000b8006011b8003fb4970084
:10123000cfb497005fb59700efb597003c00b300bf
:1012400008045000898458000a0559008b8559000c
:1012500022003700e00f560005003d00afb29700b6
:101260004501be004500be00a5b79f000f00370036
:10127000f0026600120032002fb497008004eb00e9
:101280004803be000005eb0096af9f00a7af9f008c
:10129000b9af9f00caaf9f001fa89700afa89700e3
:1012a0003fa99700cfa99700a8b79f00b0b79f00ac
:1012b000c1b79f00d2b79f00e3b79f000b00370074
:1012c000afb09700c1027800a1b79f000504780075
:1012d000090020000a0020000b002000b8b79f0082
:1012e000c9b79f00dab79f00ebb79f009fb4970084
:1012f000e08f54000d003a001a0020003fb0970024
:10130000cfb097005fb19700efb197009ab79f00f9
:10131000e00f5000e08f5800e00f5900e08f5900b7
:10132000020032008000eb0091b79f000c017800b2
:1013300005042000020cb20082b79f00850f510007
:101340003400320003003c00e00f5100080032007e
:1013500048003700050820008fb19700858f5100a5
:1013600014003200050c2000858f510041003a0026
:101370000687200015c0b3003600be003601be004f
:101380003fb49700cfb497005fb59700efb59700d3
:101390000040e10001c8e10002d0e10003d8e10013
:1013a000330039008542e800f4cf5200f2ff3a00e2
:1013b0002f00370015c0b3000001200001002000fd
:1013c0006011b8003fb49700cfb497005fb59700a5
:1013d000efb597000040e10001c8e10002d0e10054
:1013e00003d8e10022003900490020000000d000ad
:1013f0008180d2000281d2008381d2008904e90079
:10140000faff3a008542e800f0cf5200edff3a00c3
:101410001700370015c0b300800020000100200035
:101420006011b8003fb49700cfb497005fb5970044
:10143000efb597000040e10001c8e10002d0e100f3
:1014400003d8e1000a003900390020000000d00074
:101450008180d2000281d2008381d2008904e90018
:10146000faff3a008542e800f5cf5200edff3a005e
:10147000e5779f006f7597009fb597008a02fb0084
:101480008b8f520002003d00eb779f000400370075
:101490001fb09700850f500001003d0095b79f00d9
:1014a000e00f520003003200e30266000100320048
:1014b0000402e900050024008502660006003200ef
:1014c0009fb09700810f52000200340001025200c9
:1014d000010037000002eb006f7197008001eb0004
:1014e0008202fb00f3af9f00850f52000200340020
:1014f00085025200f5af9f00640266003b00320097
:10150000e202660061026600e08f520011003200c4
:10151000bd0290000504b200080032009d02780070
:10152000b6c2b300e00f52000100320006c3e8006b
:10153000864a7800850ee80015003700b0022000ca
:10154000e00f5200010032000080e8008d007800ba
:101550000c003700e00f52000e0032003d029000f8
:101560000404b200050032001d02780005c2b30079
:10157000054a7800840ee800050037008d007800e9
:10158000000220002e010700e10f400001003200a0
:101590000e07e8007faa9700e00f52004f003200cc
:1015a00008c3b300840478003d0290000404b20034
:1015b000040032001d027800084a7800840ee8001a
:1015c000050037008d007800000320001c01070093
:1015d000e10f4000010032000e07e8008904e90035
:1015e000f1ff3a00f9af9f003c003700ffaa9700d7
:1015f000e08f5200140032006802660012003a00c8
:1016000008c2b300850478003d0290000404b200d3
:10161000040032001d027800084a7800840ee800b9
:10162000050037008d00780000022000040107004b
:10163000e10f4000010032000e07e8008904e900d4
:10164000f1ff3a00f9af9f00e20266006102660016
:10165000e08f520011003200bd0290000504b2007c
:10166000080032009d027800b6c2b300e00f5200bd
:101670000100320006c3e800864a7800850ee800c3
:1016800015003700b0022000e00f520001003200c8
:101690000080e8008d0078000c003700e00f520059
:1016a0000e0032003d0290000404b200050032003a
:1016b0001d02780005c2b300054a7800840ee800d8
:1016c000050037008d00780000022000dc000700d4
:1016d000e10f4000010032000e07e8001fb3970041
:1016e000858620000602e900f0046600c223dd00c2
:1016f0000c057800c7a79f000a02b2006323b90057
:10170000e99f9f00060478004322dd00b8a79f00f0
:1017100085024200da9f9f00e5af9f00a3003700db
:101720009fb597000fb097008b05e90001042000da
:101730009bb79f00810f50007300320003003c00f4
:10174000e00f5000080032007e003700040820003f
:101750000fb19700840f510056003200040c200096
:10176000840f510077003a00e00f56001f003d0043
:10177000efa997003304be002305be003fb09700d9
:10178000cfb097005fb19700efb197000802be009d
:101790000a03be0023fc07000802be000a03be00c5
:1017a000e0779f000000fb00cf80de0001017800a1
:1017b00082017800a8fc07003fb29700cfb29700e3
:1017c0005fb39700efb397000002520081825a0086
:1017d00002035b0083835b00b4b79f00c5b79f0023
:1017e000d6b79f00e7b79f002e003700ef9a97000b
:1017f000e08f5200220032006fab97003fb297009b
:10180000cfb297003604be002605be000400be001d
:101810000801be0084bf9f00f5b79f000005eb00e4
:10182000b6fc07000801be00e0779f000000fb0047
:10183000cf80de00c1fc07000fba9700ffb297000f
:101840008aaf9f000004520081845a00d8a79f00ed
:10185000e9a79f008004eb00f9a79f005fa0970015
:10186000efa097007fa197008fa99700b0b79f00c6
:10187000c1b79f00d2b79f00e3b79f0009003700b0
:10188000efa897003fb197001102780011000900fe
:101890000481d800a4002000110009000480d800b1
:1018a000e1779f00ef7197000343b000e3779f005b
:1018b0002400370094912000df9a9700e08f5200b7
:1018c00001003200849020003fb09700cfb0970015
:1018d0005fb19700efb197004fa397000603e900af
:1018e000050033008301d1000281d3008180d30041
:1018f0000080d300f9ff37006f006000644078007b
:10190000e0779f000f0037003fb29700cfb29700fb
:101910005fb39700efb397003fa497000804e90076
:10192000050033008703d1000683d3008582d300ee
:101930000482d300f9ff3700674262000443b0001d
:10194000e4779f003d0290000404b20007003200db
:101950009d0278006f729700844a7800850ee80037
:10196000e04f520007003a0007003700ef7497007d
:101970008d0078000900fb0031000700e10f4000f6
:10198000010032000e07e8004fa59700bfa59700a1
:101990006fa8970064055500e38555006800500066
:1019a000caa79f00bba79f00e0af9f009fb0970012
:1019b000e08f50005aff3a006806660014003200bb
:1019c0007fa99700e00f51001100340008c2b30056
:1019d000820478003d0290000404b200040032004a
:1019e0001d027800084a7800840ee80005003700e0
:1019f0008d0078000002200011000700e10f400078
:101a0000010032000e07e8008904e900f1ff3a0006
:101a1000dfa9970013407800e0779f00e04f500067
:101a200095fc3a000e0078004f0778004f06be0084
:101a30004f05be004f04be00ef03b10000000600da
:101a4000889fbe00010478008084eb00380290007b
:101a5000e20262003b00320004037800980290002a
:101a60000620b20002003a00e08f520035003a0032
:101a70000490a0008004780034049800f90fb200ac
:101a8000e08f520002003a00a8029000050c780096
:101a9000ea8f540005003a000408b20003003a003f
:101aa00088007800d0002000e5ff070018029000b1
:101ab000d8029000850f52000b0032000402e800ab
:101ac00015c0b3001404980018027800094a780081
:101ad000040ce80084952000054a7800ea8f540041
:101ae00018003a00050037000940780088007800a7
:101af00017000700800478001200370038029000b9
:101b00000410b2000f00320018019000a8009000ed
:101b10004800900099fa070018029000840f5000c6
:101b200004003200380290000403b300340498002b
:101b30008084eb000002eb0014049800280290005f
:101b4000040c7800090078004f04be000000060075
:101b50000200fa00889fbe0001047800a0ff9f00e9
:101b600038029000840278000504b20002003200be
:101b70000000fb0035003700e202620005003a0079
:101b80000403b30015049800340498000080eb00af
:101b90002e003700d8049000e08f540006003a0071
:101ba00012002000e68057004800900073fa0700fa
:101bb0001904980023003700a8029000e08f52001b
:101bc00008003a00c59520000430a00025049800c4
:101bd000050c780034049800250020005504980076
:101be0001504980018019000a8009000480090008b
:101bf00062fa0700280290008082eb00150498002a
:101c0000affa9700054a7800040ce8002ffa970015
:101c1000ea4f52000b003a00380290000410b20064
:101c20000800320018019000a800900048009000c1
:101c300052fa07000002eb00a8029000140498007a
:101c4000050c78002ffa97000400fb004f04be003b
:081c50000080fa00000006000c
:020000040000fa
:101c5800434100004d42000049410000522000006d
:101c6800434c00004156000045000000494e00006a
:101c7800542e0000204300004c410000564500004f
:101c8800203c0000004900004e5400002e200000b7
:101c9800434c000041560000452000002000000091
:101ca800434100004d42000049410000522000001d
:101cb800434c000041560000452000003c00000055
:101cc800302000003c2000003020000020300000c0
:101cd8002020000030000000494e0000542e000073
:101ce800204e0000554500005641000020430000ea
:101cf8004c410000564500000025000075200000fa
:101d08003c200000257500002020000025750000fb
:101d18002020000025750000002500007520000027
:101d280020250000752000003c20000025750000db
:101d38002020000025750000002500007520000007
:101d480020250000752000002025000075200000d7
:101d58003c200000257500000025000075200000cb
:101d680020250000752000002025000075200000b7
:101d780020250000752000003c00000025750000ab
:101d88002025000075200000257500002025000092
:101d980075000000434c000041560000452000003b
:101da80047550000415200004441000044410000f2
:101db80000000000494e0000542e0000204300009f
:101dc8004c41000056450000004300004c41000013
:101dd80056450000204300004f52000052450000c5
:101de8004354000041000000004300004c41000043
:101df80056450000204900004e4300004f520000a5
:101e0800524500004354000041000000494e0000c4
:101e1800544500004e540000452000004445000091
:101e2800204e000055450000564f000000000000fd
:020000040000fa
:101e38000200fa00004f7800c9e2a800d4a2a90065
:101e48009e4278000582fb00d416880000e8230033
:101e58000100200086f90700d482a800008823002a
:101e68001100200082f90700d482a9000080fa003e
:101e7800000006000000fa00003025007100200074
:101e88007bf90700c9e2a900d4a2a900dae2a900f7
:101e9800dac2a900daa2a800da82a800da62a800e9
:101ea800da42a900da22a900da02a900d482a8003d
:101eb80000882300110020006df90700d482a900d2
:101ec800008823001100200069f907000030200075
:101ed8000100200066f90700c9e2a900d4a2a90000
:101ee800dae2a900dac2a900daa2a900da82a90016
:101ef800da62a800da42a800da22a900da02a90008
:101f0800d482a800008823001100200058f9070097
:101f1800d482a900008823001100200054f907008a
:101f2800003020000100200051f90700c9e2a90093
:101f3800d4a2a900dae2a900dac2a900daa2a900ab
:101f4800da82a900da62a900da42a900da22a90035
:101f5800da02a800d482a80000882300110020001b
:101f680043f90700d482a90000882300110020004b
:101f78003ff9070000e82300010020003cf90700b2
:101f8800c9e2a900d4a2a900dae2a900dac2a9002c
:101f9800daa2a900da82a900da62a900da42a80066
:101fa800da22a800da02a900d482a8000088230057
:101fb800110020002ef90700d482a9000088230010
:101fc800110020002af9070000e823000100200082
:101fd80027f907000080fa00000006000000fa0058
:101fe800d4a2a900c9e2a900dae2a800dac2a800ce
:101ff800daa2a900da82a900da62a900da42a90005
:10200800da22a900da02a900d482a80000882300f5
:102018001100200016f90700d482a9000080fa00f8
:10202800000006000000fa00d4a2a900c9e2a90035
:10203800dae2a800dac2a900daa2a900da82a900c5
:10204800da62a900da42a900da22a900da02a900b4
:10205800d482a800008823001100200004f907009a
:10206800d482a9000080fa00000006000400fa00eb
:10207800100798000042eb00044f78000700370073
:102088001e029000144f78001e40780068ff070079
:102098001e0290000402e800140798001e02900037
:1020a80014427800e04f5200f5ff3a000080fa0031
:1020b800000006000400fa00100798000042eb0038
:1020c800044f7800c5ff0700070037001e02900084
:1020d800144f78001e40780055ff07001e0290003c
:1020e8000402e800140798001e02900014427800c9
:1020f800e04f5200f5ff3a00caff07000080fa00df
:10210800000006000000fa00c9e2a900d4a2a90054
:10211800dae2a900dac2a900daa2a900da82a900e3
:10212800da62a900da42a900da22a900da02a800d4
:10213800d482a8000088230011002000ccf80700f2
:10214800d482a9000080fa00000006000000fa000e
:102158000002eb00441688000002eb00d416880049
:102168000002eb00a41688000002eb003416880079
:102178000002eb00c41688000002eb0094168800e9
:10218800d2e2a800d2c2a800d3a2a800c0e2a80048
:10219800c002a900c022a900c042a900c062a900cb
:1021a800c082a900c0a2a900c0c2a90031ff0700cf
:1021b80020822000adff070020832000bdff07001c
:1021c8000500370000000000030037000000000091
:1021d8000100370000000000a51680000408200058
:1021e80004826200e00f52003c003a0000202e00fa
:1021f800410020009ef80700a51680000408200072
:1022080004826200e00f520034003a00000000002f
:10221800a51680000408200004826200e00f520026
:10222800fbff320000202e004100200090f807003c
:10223800a51680000408200004826200e00f520006
:102248002600320004408000e20f520012003a00db
:10225800140020000440880024832000e2002000ad
:10226800c1e22800040078005afa070024822000fe
:10227800d2002000a1e328000400780055fa0700e6
:10228800a0ff07002082200078ff0700208320009d
:1022980088ff070011003700240020000440880050
:1022a80024822000d200200071e428000400780075
:1022b80048fa0700248320000201200041e5280095
:1022c8000400780043fa07008eff070020822000f0
:1022d80066ff07002083200076ff0700a516800010
:1022e8000404200004826200e00f5200b5ff3a00a7
:1022f80000202e00410020005df80700a516800090
:102308000404200004826200e00f5200afff3a008c
:1023180000000000a516800004042000048262006a
:10232800e00f5200fbff320000202e004100200089
:102338004ff80700a51680000404200004826200fc
:10234800e00f5200a3ff320004408000e20f520069
:1023580007003a000c0007006aff070020822000ef
:1023680042ff07002083200052ff07009aff370032
:10237800db020700208220003cff070020832000aa
:102388004cff070094ff37001000fa002f030700e6
:102398005cff070024852000c200200041e62800d9
:1023a800040078000bfa0700208520002fff0700a3
:1023b800248020001201200001e728000400780092
:1023c80004fa0700208020003aff07000002eb0013
:1023d800144288000002eb00244288000002eb004f
:1023e800344288000002eb00444288009e00370017
:1023f800151680000408200004826200e00f5200d5
:1024080031003a0000202e004100200018f8070093
:10241800151680000408200004826200e00f5200b4
:1024280029003a000000000015168000040820006a
:1024380004826200e00f5200fbff320000202e00f1
:10244800410020000af80700151680000408200043
:1024580004826200e00f52001b0032001442800028
:102468000402e8001442880014428000e90f520078
:10247800020034000002eb00144288004042800051
:1024880037428000264280001542800024852000c3
:10249800801f7800871f7800861f7800851f7800c6
:1024a80015e82800851f780004007800d0f9070097
:1024b800ea87570013ff070020852000ebfe07007e
:1024c80020802000fbfe0700a516800004002200e3
:1024d80004826200e00f520031003a0000202e0012
:1024e80041002000e2f70700a51680000400220042
:1024f80004826200e00f520029003a000000000048
:10250800a51680000400220004826200e00f520039
:10251800fbff320000202e0041002000d4f7070006
:10252800a51680000400220004826200e00f520019
:102538001b003200144280000402e90014428800a3
:1025480014428000e00f520002003d009400200079
:1025580014428800404280003742800026428000b2
:102568001542800024852000801f7800871f78008e
:10257800861f7800851f780015e82800851f7800d9
:10258800040078009af90700ea875700ddfe070083
:1025980020852000b5fe070020802000c5fe07002a
:1025a800a51680000404200004826200e00f520097
:1025b8002d003a0000202e0041002000acf7070053
:1025c800a51680000404200004826200e00f520077
:1025d80025003a0000000000a51680000404200031
:1025e80004826200e00f5200fbff320000202e0040
:1025f800410020009ef70700a51680000404200073
:1026080004826200e00f52001700320014c0b300c9
:102618000443780035862000864a7800b9fe070012
:1026280040428000374280002642800015428000e8
:1026380024852000801f7800871f7800861f780077
:10264800851f780015e92800851f780004007800a8
:1026580067f90700ea8757002085200083fe0700f6
:102668002080200093fe0700348620001442780062
:10267800e04f52005eff3200a20037000042eb003c
:102688000443780035862000864a780015168000b5
:102698000408200004826200e00f520031003a0072
:1026a80000202e004100200071f707001516800059
:1026b8000408200004826200e00f520029003a005a
:1026c8000000000015168000040820000482620043
:1026d800e00f5200fbff320000202e0041002000d6
:1026e80063f70700151680000408200004826200c2
:1026f800e00f52001b003200244280000402e80070
:102708002442880024428000e90f5200020034006d
:102718000002eb00244288004042800037428000db
:10272800264280001542800024852000801f780002
:10273800871f7800861f7800851f780015e9280014
:10274800851f78000400780029f90700ea875700f8
:102758006cfe07002085200044fe07002080200032
:1027680054fe0700a51680000400220004826200bf
:10277800e00f520031003a0000202e0041002000f6
:102788003bf70700a51680000400220004826200bf
:10279800e00f520029003a0000000000a516800052
:1027a8000400220004826200e00f5200fbff3200a6
:1027b80000202e00410020002df70700a5168000fc
:1027c8000400220004826200e00f52001b00320065
:1027d800244280000402e900244288002442800048
:1027e800e00f520002003d009400200024428800bf
:1027f8004042800037428000264280001542800017
:1028080024852000801f7800871f7800861f7800a5
:10281800851f780015e92800851f780004007800d6
:10282800f3f80700ea87570036fe070020852000e6
:102838000efe0700208020001efe0700a51680005f
:102848000404200004826200e00f52002d003a00c8
:1028580000202e004100200005f70700a516800083
:102868000404200004826200e00f520025003a00b0
:1028780000000000a5168000040420000482620005
:10288800e00f5200fbff320000202e004100200024
:10289800f7f60700a51680000404200004826200f1
:1028a800e00f52001700320014c0b3000443780050
:1028b80045862000864a78004042800037428000e2
:1028c800264280001542800024852000801f780061
:1028d800871f7800861f7800851f780015ea280072
:1028e800851f780004007800c1f80700ea875700c0
:1028f80004fe070020852000dcfd07002080200062
:10290800ecfd07004486200014427800e04f520096
:102918005aff3200a20037000042eb00044378005f
:1029280045862000864a7800151680000408200095
:1029380004826200e00f520031003a0000202e00ad
:1029480041002000caf60700151680000408200080
:1029580004826200e00f520029003a0000000000e3
:10296800151680000408200004826200e00f52005f
:10297800fbff320000202e0041002000bcf60700bb
:10298800151680000408200004826200e00f52003f
:102998001b003200344280000402e8003442880000
:1029a80034428000e90f5200020034000002eb00bc
:1029b800344288004042800037428000264280002e
:1029c8001542800024852000801f7800871f78002a
:1029d800861f7800851f780015ea2800851f780073
:1029e8000400780082f80700ea875700c5fd070051
:1029f800208520009dfd070020802000adfd0700f8
:102a0800a51680000400220004826200e00f520034
:102a180031003a0000202e004100200094f6070003
:102a2800a51680000400220004826200e00f520014
:102a380029003a0000000000a516800004002200ca
:102a480004826200e00f5200fbff320000202e00db
:102a58004100200086f60700a51680000400220029
:102a680004826200e00f52001b00320034428000f2
:102a78000402e9003442880034428000e00f52002a
:102a880002003d009400200034428800404280004b
:102a980037428000264280001542800024852000ad
:102aa800801f7800871f7800861f7800851f7800b0
:102ab80015ea2800851f7800040078004cf8070004
:102ac800ea8757008ffd07002085200067fd070073
:102ad8002080200077fd0700a51680000404200050
:102ae80004826200e00f52002d003a0000202e0000
:102af800410020005ef60700a516800004042000af
:102b080004826200e00f520025003a000000000035
:102b1800a51680000404200004826200e00f520021
:102b2800fbff320000202e004100200050f6070075
:102b3800a51680000404200004826200e00f520001
:102b48001700320014c0b3000443780055862000f3
:102b5800864a780040428000374280002642800042
:102b68001542800024852000801f7800871f780088
:102b7800861f7800851f780015eb2800851f7800d0
:102b8800040078001af80700ea8757005dfd07007f
:102b98002085200035fd07002080200045fd070026
:102ba8005486200014427800e04f52005aff320049
:102bb800930037000042eb0004437800558620005c
:102bc800864a7800151680000408200004826200f6
:102bd800e00f520031003a0000202e004100200092
:102be80023f60700151680000408200004826200fe
:102bf800e00f520029003a0000000000151680007e
:102c08000408200004826200e00f5200fbff32003b
:102c180000202e004100200015f607001516800040
:102c28000408200004826200e00f52001b003200fa
:102c3800444280000402e800444288004442800084
:102c4800e90f5200020034000002eb004442880001
:102c580040428000374280002642800015428000b2
:102c680024852000801f7800871f7800861f780041
:102c7800851f780015eb2800851f78000400780070
:102c8800dbf70700ea8757001efd070020852000b4
:102c9800f6fc07002080200006fd0700a51680002e
:102ca8000400220004826200e00f520031003a0062
:102cb80000202e0041002000edf50700a516800039
:102cc8000400220004826200e00f520029003a004a
:102cd80000000000a51680000400220004826200a3
:102ce800e00f5200fbff320000202e0041002000c0
:102cf800dff50700a51680000400220004826200a8
:102d0800e00f52001b003200444280000402e90038
:102d18004442880044428000e00f520002003d0017
:102d280094002000444288004042800037428000de
:102d3800264280001542800024852000801f7800ec
:102d4800871f7800861f7800851f780015eb2800fc
:102d5800851f780004007800a5f70700ea87570068
:102d6800e8fc070020852000c0fc07002080200028
:102d7800d0fc0700a516800004042000048262002d
:102d8800e00f52001a003a0000202e0041002000f7
:102d9800b7f50700a516800004042000048262002d
:102da800e00f520012003a0000000000a516800053
:102db8000404200004826200e00f5200fbff32008e
:102dc80000202e0041002000a9f50700a51680006c
:102dd8000404200004826200e00f52000400320064
:102de80014c0b3000443780065862000864a780042
:102df80014c0b3000443780025862000864a780072
:102e08006486200014427800e04f520069ff3200c7
:102e18000042eb000443780065862000864a78006b
:102e28002486200014427800e14f52002a003a001c
:102e38000042eb000443780025862000864a78008b
:102e48001442800054428800244280006442880072
:102e580034428000744288004442800084428800e2
:102e6800e4ec28000e000900345f7800fe00b10091
:102e7800f400b1000042eb00744f980080428000db
:102e880077428000664280005542800024852000f9
:102e9800801f7800871f7800861f7800851f7800bc
:102ea80025ec2800851f78000400780050f70700fb
:102eb800ea87570093fc07000e0078006bfc0700b8
:102ec800208520007bfc070000802400811e200054
:102ed80067f507008bfc07000080fa000000060079
:102ee8002000fa005900070086fc07000e0278004f
:102ef8003654240027252500068abe0064024200b5
:102f08001644240057252500068abe0064024200a4
:102f18001604200007002000068abe006402420052
:102f28006033b800068abe00142424009554240097
:102f3800040f9800150f980024452500150420005b
:102f4800240f9800350f9800780247000300090005
:102f5800001aeb000e00780044fc070070024700de
:102f68000400780053fc0700c202a800c222a8008f
:102f7800c242a800c262a800c282a800c2a2a800d9
:102f8800c2c2a8000042eb00044378007586200006
:102f9800864a780027003700a5168000040820001c
:102fa80004826200e00f520022003a0000202e0046
:102fb800410020002ef50700a51680000408200017
:102fc80004826200e00f52001a003a00000000007c
:102fd800a51680000408200004826200e00f520059
:102fe800fbff320000202e004100200020f50700e2
:102ff800a51680000408200004826200e00f520039
:103008000c00320014c0b300044378007586200019
:10301800864a7800c202a900c222a900c242a900b9
:10302800c262a900c282a900c2a2a900c2c2a900a4
:1030380034fc07007486200014427800e04f5200e8
:10304800d5ff32000080fa00000006003200fa00c6
:103058000042eb00044f78002afc0700248520007a
:10306800c200200041e6280004007800d9f60700d5
:1030780020852000fdfb070024802000b2002000ee
:10308800e1ed280004007800d2f607002080200037
:1030980008fc0700de0237000002eb00144288003b
:1030a8000002eb00244288000002eb003442880052
:1030b8000002eb00444288009e003700151680008d
:1030c8000408200004826200e00f520031003a0038
:1030d80000202e0041002000e5f4070015168000ae
:1030e8000408200004826200e00f520029003a0020
:1030f8000000000015168000040820000482620009
:10310800e00f5200fbff320000202e00410020009b
:10311800d7f4070015168000040820000482620016
:10312800e00f52001b003200144280000402e80045
:103138001442880014428000e90f52000200340053
:103148000002eb00144288004042800037428000b1
:10315800264280001542800024852000801f7800c8
:10316800871f7800861f7800851f780015e82800db
:10317800851f7800040078009df60700ea8757004d
:10318800e0fb070020852000b8fb07002080200016
:10319800c8fb0700a5168000040022000482620014
:1031a800e00f520031003a0000202e0041002000bc
:1031b800aff40700a5168000040022000482620014
:1031c800e00f520029003a0000000000a516800018
:1031d8000400220004826200e00f5200fbff32006c
:1031e80000202e0041002000a1f40700a516800051
:1031f8000400220004826200e00f52001b0032002b
:10320800144280000402e90014428800144280003d
:10321800e00f520002003d00940020001442880094
:1032280040428000374280002642800015428000dc
:1032380024852000801f7800871f7800861f78006b
:10324800851f780015e82800851f7800040078009d
:1032580067f60700ea875700aafb070020852000c9
:1032680082fb07002080200092fb0700a516800043
:103278000404200004826200e00f52002d003a008e
:1032880000202e004100200079f40700a5168000d8
:103298000404200004826200e00f520025003a0076
:1032a80000000000a51680000404200004826200cb
:1032b800e00f5200fbff320000202e0041002000ea
:1032c8006bf40700a5168000040420000482620045
:1032d800e00f52001700320014c0b3000443780016
:1032e80035862000864a78004042800037428000b8
:1032f800264280001542800024852000801f780027
:10330800871f7800861f7800851f780015e9280038
:10331800851f78000400780035f60700ea87570013
:1033280078fb07002085200050fb07002080200044
:1033380060fb07003486200014427800e04f5200fa
:103348005eff3200a20037000042eb000443780021
:1033580035862000864a780015168000040820006b
:1033680004826200e00f520031003a0000202e0073
:10337800410020003ef407001516800004082000d4
:1033880004826200e00f520029003a0000000000a9
:10339800151680000408200004826200e00f520025
:1033a800fbff320000202e004100200030f407000f
:1033b800151680000408200004826200e00f520005
:1033c8001b003200244280000402e80024428800e6
:1033d80024428000e90f5200020034000002eb0092
:1033e8002442880040428000374280002642800004
:1033f8001542800024852000801f7800871f7800f0
:10340800861f7800851f780015e92800851f780039
:1034180004007800f6f50700ea87570039fb070033
:103428002085200011fb07002080200021fb0700d9
:10343800a51680000400220004826200e00f5200fa
:1034480031003a0000202e004100200008f4070057
:10345800a51680000400220004826200e00f5200da
:1034680029003a0000000000a51680000400220090
:1034780004826200e00f5200fbff320000202e00a1
:1034880041002000faf30700a5168000040022007e
:1034980004826200e00f52001b00320024428000c8
:1034a8000402e9002442880024428000e00f520010
:1034b80002003d0094002000244288004042800021
:1034c8003742800026428000154280002485200073
:1034d800801f7800871f7800861f7800851f780076
:1034e80015e92800851f780004007800c0f507005a
:1034f800ea87570003fb070020852000dbfa070056
:1035080020802000ebfa0700a516800004042000a4
:1035180004826200e00f52002d003a0000202e00c5
:1035280041002000d2f30700a51680000404200003
:1035380004826200e00f520025003a0000000000fb
:10354800a51680000404200004826200e00f5200e7
:10355800fbff320000202e0041002000c4f30700ca
:10356800a51680000404200004826200e00f5200c7
:103578001700320014c0b3000443780045862000c9
:10358800864a780040428000374280002642800008
:103598001542800024852000801f7800871f78004e
:1035a800861f7800851f780015ea2800851f780097
:1035b800040078008ef50700ea875700d1fa070063
:1035c80020852000a9fa070020802000b9fa07000a
:1035d8004486200014427800e04f52005aff32001f
:1035e800a20037000042eb00044378004586200023
:1035f800864a7800151680000408200004826200bc
:10360800e00f520031003a0000202e004100200057
:1036180097f3070015168000040820000482620052
:10362800e00f520029003a00000000001516800043
:103638000408200004826200e00f5200fbff320001
:1036480000202e004100200089f307001516800095
:103658000408200004826200e00f52001b003200c0
:10366800344280000402e80034428800344280007a
:10367800e90f5200020034000002eb0034428800d7
:103688004042800037428000264280001542800078
:1036980024852000801f7800871f7800861f780007
:1036a800851f780015ea2800851f78000400780037
:1036b8004ff50700ea87570092fa07002085200097
:1036c8006afa0700208020007afa0700a516800011
:1036d8000400220004826200e00f520031003a0028
:1036e80000202e004100200061f30700a51680008d
:1036f8000400220004826200e00f520029003a0010
:1037080000000000a5168000040022000482620068
:10371800e00f5200fbff320000202e004100200085
:1037280053f30700a51680000400220004826200fb
:10373800e00f52001b003200344280000402e9000e
:103748003442880034428000e00f520002003d00fd
:1037580094002000344288004042800037428000b4
:10376800264280001542800024852000801f7800b2
:10377800871f7800861f7800851f780015ea2800c3
:10378800851f78000400780019f50700ea875700bc
:103798005cfa07002085200034fa0700208020000a
:1037a80044fa0700a5168000040420000482620081
:1037b800e00f52002d003a0000202e0041002000aa
:1037c8002bf30700a5168000040420000482620081
:1037d800e00f520025003a0000000000a516800006
:1037e8000404200004826200e00f5200fbff320054
:1037f80000202e00410020001df30700a5168000c0
:103808000404200004826200e00f52001700320016
:1038180014c0b3000443780055862000864a780017
:1038280040428000374280002642800015428000d6
:1038380024852000801f7800871f7800861f780065
:10384800851f780015eb2800851f78000400780094
:10385800e7f40700ea8757002afa070020852000c6
:1038680002fa07002080200012fa07005486200080
:1038780014427800e04f52005aff32008f003700a0
:103888000042eb000443780055862000864a780001
:10389800151680000408200004826200e00f520020
:1038a80031003a0000202e0041002000f0f207000d
:1038b800151680000408200004826200e00f520000
:1038c80029003a00000000001516800004082000b6
:1038d80004826200e00f5200fbff320000202e003d
:1038e80041002000e2f207001516800004082000bd
:1038f80004826200e00f52001b0032004442800044
:103908000402e8004442880044428000e90f520063
:10391800020034000002eb0044428800404280006c
:10392800374280002642800015428000248520000e
:10393800801f7800871f7800861f7800851f780011
:1039480015eb2800851f780004007800a8f407000c
:10395800ea875700ebf9070020852000c3f9070024
:1039680020802000d3f90700a5168000040022005b
:1039780004826200e00f520031003a0000202e005d
:1039880041002000baf20700a516800004002200ba
:1039980004826200e00f520029003a000000000093
:1039a800a51680000400220004826200e00f520085
:1039b800fbff320000202e0041002000acf207007f
:1039c800a51680000400220004826200e00f520065
:1039d8001b003200444280000402e900444288008f
:1039e80044428000e00f520002003d009400200095
:1039f80044428800404280003742800026428000ce
:103a08001542800024852000801f7800871f7800d9
:103a1800861f7800851f780015eb2800851f780021
:103a28000400780072f40700ea875700b5f9070028
:103a3800208520008df90700208020009df90700cf
:103a4800a51680000404200004826200e00f5200e2
:103a58001a003a0000202e004100200084f20700de
:103a6800a51680000404200004826200e00f5200c2
:103a780012003a0000000000a5168000040420008f
:103a880004826200e00f5200fbff320000202e008b
:103a98004100200076f20700a516800004042000eb
:103aa80004826200e00f52000400320014c0b30028
:103ab8000443780065862000864a780064862000e2
:103ac80014427800e04f52006dff32000042eb00d4
:103ad8000443780065862000864a780015428000f5
:103ae80054428000848f520026003a00254280000c
:103af80064428000848f520022003a0035428000e0
:103b080074428000848f52001e003a0045428000b3
:103b180084428000848f52001a003a0014c0b30017
:103b2800044f780077f9070094ee2800e102470077
:103b38000e000900b45a7800f400b1000042eb000e
:103b4800045798000e02e8000400780047f90700bf
:103b580000402200410f200045f2070069f90700e4
:103b680024852000c200200041e6280004007800d7
:103b780018f40700208520003cf907002080200069
:103b88004cf907001e427800e04f520020003a002e
:103b980094ef2800710347000f000900345b780098
:103ba8000401b10057f907007102470004007800ca
:103bb8002ef90700a4f0280015022000850247000e
:103bc8000f000900b45a78000401b1001402200063
:103bd8000e0242000400780036f907000040220077
:103be800410f200022f2070046f907002485200033
:103bf800c200200041e6280004007800f5f3070021
:103c08002085200019f907002080200029f90700e5
:103c18001e427800e04f52001ffd32000080fa007b
:043c28000000060092
:020000040000fa
:103c2c0000080000420000000200000001004900f2
:103c3c004e542e0020434c004156450020000000fd
:103c4c000000000043414d00424941005220430016
:103c5c004c4156004500000000494e00542e2000f7
:103c6c00434c4100564520003c000000000043003e
:103c7c00414d42004941520020434c004156450001
:103c8c0000000000420800002600000000000000b8
:103c9c00080900002a000000020000003031320048
:103cac00333435003637380039414200434445003f
:103cbc0046003000313233003435360037383900a5
:103ccc00616263006465660000286e00756c6c00b0
:103cdc002900000068080000a0000000020000009d
:103cec00010000000000000000000a0000000000bd
:103cfc000000000000640000000000000000000054
:103d0c00e803000000000000000010002700000085
:103d1c000000000000a08600010000000000000070
:103d2c0040420f0000000000000080009698000048
:103d3c00000000000000e100f5050000000000009c
:103d4c0000ca9a003b00000000000000e40b540085
:103d5c00020000000000e800764817000000000098
:103d6c000010a500d4e8000000000000a0724e0076
:103d7c0018090000000040007a10f3005a000000ff
:103d8c000080c600a47e8d000300000000c16f00ff
:103d9c00f2862300000000008a5d78004563010074
:103dac0000006400a7b3b600e00d000000e8890035
:103dbc000423c7008a000000320900002400000020
:103dcc00020000005a090000005a09000900000016
:103ddc00000200005c090000005c09000e020100fa
:103dec0000000000000000000000000006020200bd
:103dfc000000000056090000020000000200000054
:103e0c003209000058090000020000000000000008
:103e1c005a09000002000000000000005c090000cc
:103e2c0002000000000000005e090000020000001b
:0c3e3c0002000000010000000000000077
:020000040000fa
:020000040002f8
:04aff800bd7b00001d
:020000040000fa
:020000040002f8
:04affc007f3f000093
:00000001FF
