:100000000A128A11F52F00308A000408840A820738
:10001000003450347534653464346F3420346534BE
:100020007334633472346934623469347234003442
:100030006C346F3420347134753465342034733447
:0600400065346134003458
:100A940064008001840A04060319003404064B2D03
:100AA40083160317880189018316031386018312B1
:100AB40003138601080083120313061786120730F6
:100AC400F1007D30F000F00B652DF10B652D8312E4
:100AD400031306160330F000F00B6E2D831203137C
:100AE40006120800F4007130F1007108F2000130C0
:100AF400F007FF30700784000A128A1103200A12DB
:100B04008A11F1007108F30073080319952D730815
:100B1400F100740884007108831380000130F1002F
:100B24007108F407792D7408840083138001080088
:100B340083120313861206130614861406118611F3
:100B440006162130F1007630F000F00BA72DF10BE2
:100B5400A72D000083120313061286120613061033
:100B640086100611861106162130F1007630F00049
:100B7400F00BBA2DF10BBA2D0000831203130612E9
:100B84000800831203138612061306148610061136
:100B9400861106162130F1007630F000F00BD02DCE
:100BA400F10BD02D000083120313061286120613D4
:100BB400061086100611861106162130F1007630D3
:100BC400F000F00BE32DF10BE32D0000831203136F
:100BD400061208000A128A1152250A128A110A12F0
:100BE4008A11D9260A128A110130F7007708F00019
:100BF40030300A128A1174250A128A111030F70053
:100C04007708F00020300A128A1174250A128A111A
:100C140030300A128A1154260A128A1120300A121C
:100C24008A1192260A128A11162EF20072080139CC
:100C3400F000F00DF00DF00D83120313060870069A
:100C4400F739700686007208F0000310700C013941
:100C5400F100F10DF10D06087106FB3971068600ED
:100C64007208F00002300310F00CFF3E031D352E15
:100C740070080139F100F10D06087106FD3971069D
:100C840086007208F00003300310F00CFF3E031DD1
:100C9400462E01307005F10006087106FE39710612
:100CA40086000800F500F601750884008313000827
:100CB400031908007508840083130008F3007308FF
:100CC400F6007608F30004300310F30CFF3E031D16
:100CD400662E7308F4007408F60076080A128A1166
:100CE40017260A128A110A128A115D250A128A111C
:100CF40075088400831300080F39F3007308F600A5
:100D040076080A128A1117260A128A110A128A11FF
:100D14005D250A128A110130F3007308F507562E77
:100D2400F500F6010A128A119A250A128A11750829
:100D34008400831300080319D52E750884008313D7
:100D44000008F3007308F6007608F300043003107B
:100D5400F30CFF3E031DA92E7308F4007408F6007B
:100D640076080A128A1117260A128A110A128A119F
:100D74005D250A128A1175088400831300080F394F
:100D8400F3007308F60076080A128A1117260A126D
:100D94008A110A128A115D250A128A110130F300A0
:100DA4007308F507992E0A128A11C3250800C33067
:100DB400F100CD30F000F00BDD2EF10BDD2E8312AF
:100DC40003130613861206108610061586150616DA
:100DD4002130F1007630F000F00BEE2EF10BEE2E08
:100DE40000008312031306122130F1007630F00064
:100DF400F00BFA2EF10BFA2E0000831203130613E4
:100E04008612061086100615861506162130F10086
:100E14007630F000F00B0C2FF10B0C2F0000831236
:100E2400031306122130F1007630F000F00B182F76
:100E3400F10B182F000083120313061386120610F9
:100E440086100615861106162130F1007630F00062
:100E5400F00B2A2FF10B2A2F000083120313061222
:100E64002130F1007630F000F00B362FF10B362FE5
:100E7400000083120313061386120610861006154B
:100E8400861106162130F1007630F000F00B482F61
:100E9400F10B482F00008312031306120613861267
:100EA4000614861406162130F1007630F000F00B9B
:100EB400592FF10B592F000083120313061221300E
:100EC400F1007630F000F00B652FF10B652F000078
:100ED4008312031306138612061086100611861158
:100EE40006162130F1007630F000F00B772FF10B6D
:100EF400772F0000831203130612061386120614BA
:100F040086100611861106162130F1007630F000A5
:100F1400F00B8A2FF10B8A2F0000831203130612A1
:100F24002130F1007630F000F00B962FF10B962F64
:100F3400000083120313061386120610861006118E
:100F4400861106162130F1007630F000F00BA82F40
:100F5400F10BA82F00008312031306120613861246
:100F6400061086100611861506162130F10076301B
:100F7400F000F00BBB2FF10BBB2F00008312031307
:100F840006122130F1007630F000F00BC72FF10B80
:100F9400C72F00008312031306138612061086104F
:100FA4000611861106162130F1007630F000F00BA0
:100FB400D92FF10BD92F0000831203130612061345
:100FC4008612061486140615861106162130F100C1
:100FD4007630F000F00BEC2FF10BEC2F00008312B5
:100FE40003130612080083132030840040300A12D1
:0C0FF4008A114A2583010A128A11EC2D93
:04400E00F2EFFFFFCF
:00000001FF
