:100000000A128A1112280134FE00030EF1000408BE
:10001000F2000A08F300831203137F08F4000A12A7
:100020008A15262F0A128A1115280A128A1103200E
:100030000A128A11F9008313A0308400ED300A12ED
:100040008A15C6260A128A11623084006F300A129D
:100050008A15C626F501F601F701F80183010A1297
:100060008A11EE2B83120313BF002F30B500350821
:10007000B800013083120313AE07FF302E0784004F
:100080000A128A1124270A128A11B5003508C00005
:1000900040080319A1292530400603195B284008B0
:1000A000B5003F0884003508831380000130B50097
:1000B0003508BF073928BD01BE01BA012E088400EA
:1000C0000A128A1124270A128A110A128A15D826BE
:1000D0000A128A11031CAA2883120313BD01BE0150
:1000E0000A3083120313A0000030A1003E08A300D1
:1000F0003D08A2000A128A1543270A128A118312A8
:1001000003132108BE002008BD002E0884000A1237
:100110008A1124270A128A11D03EB500FF30031835
:100120000030B6003508BD070318BE0A3608BE0702
:100130000130B5003508AE072E0884000A128A1176
:1001400024270A128A110A128A15D8260A128A113D
:1001500003187028013083120313AE07FF302E07F7
:1001600084000A128A1124270A128A11C000003A58
:100170000319A129643A0319C1280D3A0319C128AA
:100180003928831203133808840083130008BB0046
:10019000840A0008BC000230B5003508B807BC1F4F
:1001A000DA280330B5003508BA04BB09BC09BB0A1C
:1001B0000319BC0AC001C00A053040060319012911
:1001C0004008B5003507013E84000A128A11242731
:1001D0000A128A11B6000A128A1124270A128A11F9
:1001E000B70037083C02031DF72836083B02031C02
:1001F00001290130B5003508C00705304006031D50
:10020000E0283D083E0403190F293A080339031971
:100210000F29FF30BD070318BE0AFF30BE07400894
:10022000B500B601B51BB6033608803AB7003E08E4
:10023000803A3702031D1E293D08350203182E2976
:10024000831203134008B500B601B51BB603350889
:10025000BD023608031CBE03BE02322983120313FB
:10026000BD01BE013D083E0403194B292030B500F5
:100270003F0884003508831380000130B50035083D
:10028000BF07FF30BD070318BE0AFF30BE073D0899
:100290003E04031D36293A08033903195A292D3023
:1002A000B5003F0884003508831380000130B50095
:1002B0003508BF074008B5003508B900FF30B50064
:1002C0003508B907390A031939280A30A80000305F
:1002D000A9003908B5003507013E84000A128A11C9
:1002E00024270A128A11A0000A128A1124270A124E
:1002F0008A11A1003C08A3003B08A2000A128A153B
:10030000C2270A128A11831203132108AB002008A6
:10031000AA000A128A158E270A128A118312031361
:100320002808303EB6003608C0004008B5003F0837
:1003300084003508831380000130B5003508BF07FD
:100340005E29831203133F08840083138001080091
:10035000831203131E08DD00DE015D08ED005E0858
:10036000EE006E08DE006D08DD005D08DE00DD01D8
:100370005D08ED005E08EE00831603131E0883126D
:1003800003136D07DD006E0803186E0ADE005D08BA
:10039000ED005E08EE000030C200C830C300C1307E
:1003A000C4003F30B200FA30B3003D30B4006E08F4
:1003B000AA006D08A9000A128A11DB270A128A1105
:1003C000831203132908B5002A08B6002B08B700CA
:1003D0000A128A11F6240A128A11831203133208B0
:1003E000C5003308C6003408C7000A128A11E52286
:1003F0000A128A11831203134208E2004308E30041
:100400004408E4006208CF006308D0006408D1000B
:100410000A128A11C9250A128A118312031350087D
:10042000EA004F08E9006A08AA006908A9000A1250
:100430008A11DB270A128A11831203132908AF00DD
:100440002A08B0002B08B1000A128A15CE260A121B
:100450008A11831203132F08C5003008C600310823
:10046000C7006208C2006308C3006408C4000A121F
:100470008A11E5220A128A11831203134208B50079
:100480004308B6004408B7000030B2002030B30083
:100490004130B4000A128A11F6240A128A1183121A
:1004A00003133208CF003308D0003408D1000A12F9
:1004B0008A11C9250A128A11831203135008E80011
:1004C0004F08E7006A08AA006908A9000A128A1101
:1004D000DB270A128A11831203132908C5002A0890
:1004E000C6002B08C7006808A3006708A2000A30EE
:1004F000A0000030A1000A128A1180270A128A1176
:10050000831203132108AA002008A9000A128A11E5
:10051000DB270A128A11831203132908C2002A0852
:10052000C3002B08C4000A128A11E5220A128A119C
:10053000831203134208AF004308B0004408B1001F
:100540000A128A15CE260A128A11831203132F0863
:10055000DF003008E0003108E1005F08C5006008F6
:10056000C6006108C7006208C2006308C3006408CF
:10057000C4000A128A11E5220A128A118312031397
:100580004208B5004308B6004408B7000030B20086
:10059000C830B3004230B4000A128A11F6240A129D
:1005A0008A11831203133208CF003308D0003408B5
:1005B000D1000A128A11C925831203135008E600DC
:1005C0004F08E500EB01EB0A080083120313420811
:1005D000C8004308C9004408CA000310490D4A0D69
:1005E000CB004B08CE004508C8004608C9004708A4
:1005F000CA000310490D4A0DCB004B08CD004E0830
:1006000003190E2B4D084E020318152B4E03FF3A0B
:100610004D07C80019304802031C152B4508C200BD
:100620004608C3004708C40008004D080319080025
:100630004E084D020318242B4D03FF3A4E07C80005
:1006400019304802031808000630C8004808CC00DA
:10065000C41BCC17C71B4C17C317FF30C205FF3094
:10066000C3050030C405C617FF30C505FF30C605F9
:100670000030C7054D084E020318642B01300310EB
:10068000C50DC60DC70DFF3E031D3F2B0130CD022A
:100690004D084E0603195F2B0130CC024C08073978
:1006A00003195F2B3E2B01300310C40CC30CC20C8A
:1006B000FF3E031D542B0130C8004808CE074E08EA
:1006C0004D0603198D2B532B4E084D0203188D2B0D
:1006D00001300310C20DC30DC40DFF3E031D692B75
:1006E0000130CE024D084E060319892B0130CC0291
:1006F0004C0807390319892B682B01300310C70CEC
:10070000C60CC50CFF3E031D7E2B0130C8004808F7
:10071000CD074E084D06031D7D2BCC1F9F2BFF30B0
:10072000C206FF30C306FF30C4060130C2070030E6
:1007300003180130C307003003180130C4074C1FF1
:10074000B12BFF30C506FF30C606FF30C7060130AB
:10075000C507003003180130C60700300318013008
:10076000C707CC014208C507430803110318430A11
:10077000031DC607440803110318440A031DC707D5
:10078000C71FD42BFF30C506FF30C606FF30C70693
:100790000130C507003003180130C60700300318C8
:1007A0000130C707CC01CC0A4508A0004608A100CB
:1007B0004708A2004E08C8004808A3004C08C9001A
:1007C0004908A4000A128A1157268312031320082D
:1007D000C2002108C3002208C40008000A128A15BA
:1007E000FC260A128A110A128A1511270A128A1186
:1007F0000A128A15E8260A128A1183160317900135
:1008000091010B3083160313ED006D08831203135F
:10081000AE00A2300A128A1132200A128A118316FF
:1008200003179001910100301102293003191002C1
:1008300003183D2C1008A23E840083130008831285
:10084000031399000C1E222C823083160313EE0032
:10085000DD30ED00ED0B2A2CEE0B2A2C0130831637
:10086000031790070318910A003091070030110216
:10087000293003191002031C1A2C0D3083120313A4
:1008800099000C1E412C0D3099000C1E452C203077
:1008900099000C1E492C831203136B03031DE92CD2
:1008A0000A128A1566270A128A1183120313620834
:1008B000A0006308A1006408A2000030A30000307B
:1008C000A4000030A5000A128A11C5260A128A1156
:1008D00003189A2C483083160313ED006D08831219
:1008E0000313AE00CA300A128A1132200A128A118A
:1008F0008316031790019101003011020E30031985
:1009000010020318E22C1008CA3E8400831300086A
:100910008312031399000C1E8B2C83160313981C4F
:100920008D2C01308316031790070318910A0030AD
:1009300091077C2C353083160313ED006D0883126C
:100940000313AE006A08B0006908AF006808B2007F
:100950006708B1006608B4006508B300CA300A121F
:100960008A1132200A128A1183160317900191010D
:10097000003011020E30031910020318E22C100887
:10098000CA3E8400831300088312031399000C1ECF
:10099000C72C823083160313EE00DD30ED00ED0B23
:1009A000CF2CEE0BCF2C01308316031790070318C2
:1009B000910A00309107003011020E300319100225
:1009C000031CBF2C0130F5000030F6008312031326
:1009D000EB016C03031D4B2C9F149F18ED2CEC01B5
:1009E0000A128A11A8210A128A114B2C83120313AE
:1009F0003208B8003308B9003408BA000310390DC2
:100A00003A0DBB003B08BC003C08031D0E2D003016
:100A1000B2000030B3000030B40008003508B80060
:100A20003608B9003708BA000310390D3A0DBB007B
:100A30003B08C1004108031D242D0030B2000030E6
:100A4000B3000030B400080041087B3EB80038080D
:100A5000BC073208B8003308B9003408BA001030B7
:100A60000310BA0CB90CB80CFF3E031D302D38082A
:100A7000BB003B08C1003508B8003608B90037088C
:100A8000BA0010300310BA0CB90CB80CFF3E031DAD
:100A9000422D3808BB003B08C1068030B80038083A
:100AA000C105B317B617FF30B505FF30B6050030E6
:100AB000B7050030BD000030BE000030BF00073079
:100AC000B8003808C000321C732D3508BD07360841
:100AD00003110318360A031DBE0737080311031854
:100AE000370A031DBF0701300310B40CB30CB20C5E
:100AF000FF3E031D742D01300310B50DB60DB70D6B
:100B0000FF3E031D7C2D0130C002031D632D093003
:100B1000B8003808C000321C9B2D3508BD073608C8
:100B200003110318360A031DBE0737080311031803
:100B3000370A031DBF0701300310B40CB30CB20C0D
:100B4000FF3E031D9C2D01300310BF0CBE0CBD0CDD
:100B5000FF3E031DA42D0130C002031D8B2D3D0857
:100B6000A0003E08A1003F08A2003C08B8003808D9
:100B7000A3004108B9003908A4000A128A115726B7
:100B8000831203132008B2002108B3002208B40026
:100B90000800831203134F08D3005008D4005108F3
:100BA000D5000310540D550DD6005608DC005C0826
:100BB000031DE32D0030D2000030D1000030D00002
:100BC0000030CF0008004F08D3005008D40051086F
:100BD000D50017300310D50CD40CD30CFF3E031DE9
:100BE000EA2D5308D6005608D700D017FF30CF059E
:100BF000FF30D0050030D1054F08D8005008D9008B
:100C00005108DA00DB018E30DC02DC1F252E5C0887
:100C1000803A8F3E0318152E0030D2000030D100EC
:100C20000030D0000030CF00080001300310DB0C92
:100C3000DA0CD90CD80CFF3E031D162E0130D30060
:100C40005308DC070319402E152E18305C02031CD4
:100C50003D2E0030D2000030D1000030D0000030F6
:100C6000CF0008000130D3000310D80DD90DDA0DE4
:100C7000DB0DD30B342E0130DC025C08031D322E59
:100C8000570803194E2ED809D909DA09DB09D80A01
:100C90000319D90A0319DA0A0319DB0A5B08D2001F
:100CA0005A08D1005908D0005808CF000800831214
:100CB000031323080319612E220821042004031DB5
:100CC000742E0030A0000030A1000030A200080007
:100CD0000130A5002508A30701300310A20CA10CC8
:100CE000A00CFF3E031D6D2EFE30220503198F2E32
:100CF000682E0130A5002508A3070130A0070030A9
:100D000003180130A107003003180130A207013099
:100D10000310A20CA10CA00CFF3E031D882EFF3077
:100D2000220503199E2E792E0130A30201300310F3
:100D3000A00DA10DA20DFF3E031D972EA11BA42EF9
:100D4000023023020318942E2318AC2EFF30A00586
:100D50007F30A105FF30A2050310A30C2308A500D6
:100D6000A601A70110300310A50DA60DA70DFF3E8B
:100D7000031DB32E2508A0042608A1042708A204F9
:100D8000240803190800A217080083120313A21FE6
:100D9000EE2E0030A6000030A7008030A800200909
:100DA000A9002109AA002209AB00A90A0319AA0A6D
:100DB0000319AB0A2908A6072A0803182A0FE12EEF
:100DC000E22EA7072B0803182B0FE72EE82EA80703
:100DD0002608A0002708A1002808A200A51F152F9B
:100DE0000030A6000030A7008030A8002309A90029
:100DF0002409AA002509AB00A90A0319AA0A0319A4
:100E0000AB0A2908A6072A0803182A0F082F092F5A
:100E1000A7072B0803182B0F0E2F0F2FA807260844
:100E2000A3002708A4002808A5008030A20680306F
:100E3000A50625082202031D080024082102031D1F
:100E4000080023082002080007308A000408840AEA
:100E500082070034013400340A340034643400342E
:100E6000E834033410342734203447347234753472
:100E700070346F34203433342034533465346E345A
:100E800073346F3472342034643465342034543411
:100E900065346D347034653472346134743475344F
:100EA000723461342034433461346E3461346C34D0
:100EB0002034303420340D340A34003425343334B3
:100EC00069342C342534313469342534313469346F
:100ED0002034203420342034203420342034203472
:100EE000003446345534453452344134203444348B
:100EF00045342034523441344E3447344F34003476
:100F000083120313A601A11F8C2FA009A109A00A17
:100F10000319A10AA601A60AA31F972FA209A309D4
:100F2000A20A0319A30A0130A4002408A606A701F7
:100F3000A801200821040319CE2FA501A50AA11B91
:100F4000AD2F01300310A00DA10DFF3E031DA22FF8
:100F50000130A4002408A5079F2F01300310A70D1E
:100F6000A80DFF3E031DAE2F21082302031DBA2F3B
:100F700020082202031CC32F2008A2022108031C00
:100F8000A303A302271401300310A10CA00CFF3E01
:100F9000031DC42F0130A502031DAD2F2608031920
:100FA000D62FA709A809A70A0319A80A2808A1008B
:100FB0002708A000080083120313AE01AA1FE72F21
:100FC000A909AA09A90A0319AA0AAE01AE0A2908A1
:100FD000A0002A08A100A2018E30AC002C08A300BA
:100FE0002E08AD002D08A4000A128A11572683127C
:100FF00003132008A9002108AA002208AB0008005A
:101D8C0064008001840A0406031900340406C72E7B
:101D9C0083120313310830042F0403190800803018
:101DAC00B106080083120313A100A0013A302102EE
:101DBC000318E62E30302102031CE62EA001A00AE7
:101DCC00200C0800831603131812831203139817A0
:101DDC0083160313181583160317871508308316FB
:101DEC000313990002309A009816080001308316EC
:101DFC0003178800890183160313860107138717BD
:101E0C00013085001F129F129F178130831203131C
:101E1C009F008501080083120313100830389000CE
:101E2C00901010130B308F00DC308E000C108B17C1
:101E3C000B17831603130C148312031310140800CE
:101E4C000C1C382F0C100130F0007008F8070B3008
:101E5C008F00DC308E0005307806031D382FF8011A
:101E6C00EC01EC0A7408FF0073088A007208840005
:101E7C00710E8300FE0E7E0E090083120313A40163
:101E8C00A501201C4F2F2208A4070318A50A23081C
:101E9C00A50701300310A20DA30DFF3E031D502F0B
:101EAC0001300310A10CA00CFF3E031D572F20087E
:101EBC002104031D472F2508A1002408A0000800B9
:101ECC0083120313A001A10175037604031D0800FE
:101EDC00A001A1012108803AFF0080307F02031D80
:101EEC00792F0E30200203180800083083120313D8
:101EFC0099000C1E7F2F83160313981C812F013021
:101F0C0083120313A0070318A10A0030A107702F36
:101F1C0083120313280829040319BD2FAD01AD0A40
:101F2C00A91BA42F01300310A80DA90DFF3E031D02
:101F3C00992F0130AC002C08AD07962F29082B02E5
:101F4C00031DAA2F28082A02031CB22F2808AA0254
:101F5C002908031CAB03AB0201300310A90CA80C1D
:101F6C00FF3E031DB32F0130AD02031DA42F2B0820
:101F7C00A9002A08A800080083120313A601A701D0
:101F8C00200821040319FB2FA501A50AA11BDA2F98
:101F9C0001300310A00DA10DFF3E031DCF2F01300A
:101FAC00A4002408A507CC2F01300310A60DA70D03
:101FBC00FF3E031DDB2F21082302031DE72F200802
:101FCC002202031CF02F2008A2022108031CA303E9
:101FDC00A302261401300310A10CA00CFF3E031D1C
:101FEC00F12F0130A502031DDA2F2708A1002608C6
:041FFC00A000080039
:04400E00F2EFFFFFCF
:00000001FF
