:060000000A128A11122809
:10000800FE00030EF0000408F1000A08F200831253
:1000180003137F08F3000A128A111F2B0A128A1190
:100028001528F601F701F801F90183120313BE013F
:10003800BF01C00183010A128A1122280A128A11FB
:100048004B230A128A110A128A1136230A128A11BC
:100058000A128A1104230A128A117903031D3A2805
:10006800F9010A128A1199220A128A117608831252
:100078000313A0007708A1007808A2001430A30099
:100088000E30A4003F30A5000A128A113A220A1243
:100098008A11031CF52801308312031386007608A1
:1000A800A0007708A1007808A2001430A3008E30C1
:1000B800A4003F30A5000A128A113A220A128A11B6
:1000C800031C312803308312031386007608A0002E
:1000D8007708A1007808A2001F30A300D530A4003B
:1000E8003F30A5000A128A113A220A128A11031C0B
:1000F800312807308312031386007608A00077089A
:10010800A1007808A2001430A3000E30A4004030EB
:10011800A5000A128A113A220A128A11031C3128F0
:100128000F308312031386007608A0007708A10019
:100138007808A2009A30A3003130A4004030A5000E
:100148000A128A113A220A128A11031C31281F3016
:100158008312031386007608A0007708A1007808A8
:10016800A2001F30A3005530A4004030A5000A1299
:100178008A113A220A128A11031C31283F3083124D
:10018800031386007608A0007708A1007808A2006B
:10019800A430A3007830A4004030A5000A128A11C8
:1001A8003A220A128A11031C31287F308312031362
:1001B80086007608A0007708A1007808A20014300D
:1001C800A3008E30A4004030A5000A128A113A22FA
:1001D8000A128A11031C3128FF3083120313860088
:1001E80031288312031386013128831203132C0844
:1001F800B2002D08B3002E08B4000310330D340DDF
:10020800B5003508B6003608031D11290030AC00CA
:100218000030AD000030AE0008002F08B2003008F2
:10022800B3003108B4000310330D340DB5003508A0
:10023800BB003B08031D27290030AC000030AD008F
:100248000030AE0008003B087B3EB2003208B6071B
:100258002C08B2002D08B3002E08B400103003108B
:10026800B40CB30CB20CFF3E031D33293208B500A1
:100278003508BB002F08B2003008B3003108B400BD
:1002880010300310B40CB30CB20CFF3E031D45290B
:100298003208B5003508BB068030B2003208BB050D
:1002A800AD17B017FF30AF05FF30B0050030B1050E
:1002B8000030B7000030B8000030B9000730B20095
:1002C8003208BA002C1C76292F08B707300803110A
:1002D8000318300A031DB807310803110318310A3F
:1002E800031DB90701300310AE0CAD0CAC0CFF3E7A
:1002F800031D772901300310AF0DB00DB10DFF3E7E
:10030800031D7F290130BA02031D66290930B20096
:100318003208BA002C1C9E292F08B7073008031191
:100328000318300A031DB807310803110318310AEE
:10033800031DB90701300310AE0CAD0CAC0CFF3E29
:10034800031D9F2901300310B90CB80CB70CFF3EF0
:10035800031DA7290130BA02031D8E293708A00002
:100368003808A1003908A2003608B2003208A300F4
:100378003B08B3003308A4000A128A11CC21831267
:1003880003132008AC002108AD002208AE000800C5
:100398008312031323080319D629220821042004F1
:1003A800031DE9290030A0000030A1000030A200A0
:1003B80008000130A5002508A30701300310A20C8E
:1003C800A10CA00CFF3E031DE229FE3022050319F3
:1003D800042ADD290130A5002508A3070130A0075C
:1003E800003003180130A107003003180130A207BC
:1003F80001300310A20CA10CA00CFF3E031DFD2927
:10040800FF3022050319132AEE290130A302013017
:100418000310A00DA10DA20DFF3E031D0C2AA11B68
:10042800192A023023020318092A2318212AFF3027
:10043800A0057F30A105FF30A2050310A30C2308F7
:10044800A500A601A70110300310A50DA60DA70D44
:10045800FF3E031D282A2508A0042608A104270812
:10046800A204240803190800A21708008312031322
:10047800A21F632A0030A6000030A7008030A80021
:100488002009A9002109AA002209AB00A90A031919
:10049800AA0A0319AB0A2908A6072A0803182A0F6B
:1004A800562A572AA7072B0803182B0F5C2A5D2A00
:1004B800A8072608A0002708A1002808A200A51F51
:1004C8008A2A0030A6000030A7008030A80023093F
:1004D800A9002409AA002509AB00A90A0319AA0A38
:1004E8000319AB0A2908A6072A0803182A0F7D2A28
:1004F8007E2AA7072B0803182B0F832A842AA8070C
:100508002608A3002708A4002808A5008030A20612
:100518008030A50625082202031D080024082102B0
:10052800031D0800230820020800831203131E0875
:10053800BC00BD013C08BE003D08BF003F08BD002F
:100548003E08BC003C08BD00BC013C08BE003D089C
:10055800BF00831603131E08831203133E07BC0053
:100568003F0803183F0ABD003C08BE003D08BF0015
:100578002830AC00A030AD003B30AE003F08A900E9
:100588003E08A8000A128A11DF220A128A11831271
:1005980003132808AF002908B0002A08B1000A127E
:1005A8008A11F920831203132C08F6002D08F7008E
:1005B8002E08F800080083120313AB01A91FEB2AC9
:1005C800A809A909A80A0319A90AAB01AB0A2808AE
:1005D800A0002908A100A2018E30F4007408A3002D
:1005E8002B08F5007508A4000A128A11CC21831281
:1005F80003132008A8002108A9002208AA0008005F
:10060800831203131F119F111F129F1283160313C6
:100618001F129F12831203139F171F1383160313AE
:100628009F17831203131F14831603130C138312CB
:1006380003139F1008000C1C272B0C100B308F0085
:10064800DC308E009F149F18272BF901F90A7308D4
:10065800FF0072088A0071088400700E8300FE0E85
:100668007E0E090083120313100830389000901092
:1006780010130B308F00DC308E000C108B170B170B
:10068800831603130C14831203131014080001308B
:100698008316031788008901013083160313850028
:0C06A800860183120313860185010800FF
:04400E00F2EFFFFFCF
:00000001FF
